{
	"contracts/Auction.sol": {
		"Auction": {
			"abi": [
				{
					"inputs": [],
					"stateMutability": "nonpayable",
					"type": "constructor"
				},
				{
					"anonymous": false,
					"inputs": [
						{
							"indexed": false,
							"internalType": "uint256",
							"name": "auctionIndex",
							"type": "uint256"
						}
					],
					"name": "AuctionCancelled",
					"type": "event"
				},
				{
					"anonymous": false,
					"inputs": [
						{
							"indexed": false,
							"internalType": "uint256",
							"name": "auctionIndex",
							"type": "uint256"
						},
						{
							"indexed": false,
							"internalType": "address",
							"name": "winner",
							"type": "address"
						},
						{
							"indexed": false,
							"internalType": "uint256",
							"name": "amount",
							"type": "uint256"
						}
					],
					"name": "AuctionEnded",
					"type": "event"
				},
				{
					"anonymous": false,
					"inputs": [
						{
							"indexed": false,
							"internalType": "uint256",
							"name": "auctionIndex",
							"type": "uint256"
						},
						{
							"indexed": false,
							"internalType": "address",
							"name": "bidder",
							"type": "address"
						},
						{
							"indexed": false,
							"internalType": "uint256",
							"name": "amount",
							"type": "uint256"
						}
					],
					"name": "BidPlaced",
					"type": "event"
				},
				{
					"inputs": [
						{
							"internalType": "uint256",
							"name": "",
							"type": "uint256"
						}
					],
					"name": "auctions",
					"outputs": [
						{
							"internalType": "address",
							"name": "auctioneer",
							"type": "address"
						},
						{
							"internalType": "uint256",
							"name": "auctionEndTime",
							"type": "uint256"
						},
						{
							"internalType": "uint256",
							"name": "reservePrice",
							"type": "uint256"
						},
						{
							"internalType": "uint256",
							"name": "highestBid",
							"type": "uint256"
						},
						{
							"internalType": "address",
							"name": "highestBidder",
							"type": "address"
						},
						{
							"internalType": "bool",
							"name": "ended",
							"type": "bool"
						},
						{
							"internalType": "bool",
							"name": "cancelled",
							"type": "bool"
						}
					],
					"stateMutability": "view",
					"type": "function"
				},
				{
					"inputs": [
						{
							"internalType": "uint256",
							"name": "",
							"type": "uint256"
						},
						{
							"internalType": "address",
							"name": "",
							"type": "address"
						}
					],
					"name": "bids",
					"outputs": [
						{
							"internalType": "address",
							"name": "bidder",
							"type": "address"
						},
						{
							"internalType": "uint256",
							"name": "amount",
							"type": "uint256"
						}
					],
					"stateMutability": "view",
					"type": "function"
				},
				{
					"inputs": [
						{
							"internalType": "uint256",
							"name": "auctionIndex",
							"type": "uint256"
						}
					],
					"name": "cancelAuction",
					"outputs": [],
					"stateMutability": "nonpayable",
					"type": "function"
				},
				{
					"inputs": [
						{
							"internalType": "uint256",
							"name": "_duration",
							"type": "uint256"
						},
						{
							"internalType": "uint256",
							"name": "_reservePrice",
							"type": "uint256"
						}
					],
					"name": "createAuction",
					"outputs": [],
					"stateMutability": "nonpayable",
					"type": "function"
				},
				{
					"inputs": [
						{
							"internalType": "uint256",
							"name": "auctionIndex",
							"type": "uint256"
						}
					],
					"name": "endAuction",
					"outputs": [],
					"stateMutability": "nonpayable",
					"type": "function"
				},
				{
					"inputs": [
						{
							"internalType": "uint256",
							"name": "auctionIndex",
							"type": "uint256"
						}
					],
					"name": "getAuctionDetails",
					"outputs": [
						{
							"internalType": "address",
							"name": "auctioneer",
							"type": "address"
						},
						{
							"internalType": "uint256",
							"name": "auctionEndTime",
							"type": "uint256"
						},
						{
							"internalType": "uint256",
							"name": "reservePrice",
							"type": "uint256"
						},
						{
							"internalType": "uint256",
							"name": "highestBid",
							"type": "uint256"
						},
						{
							"internalType": "address",
							"name": "highestBidder",
							"type": "address"
						},
						{
							"internalType": "bool",
							"name": "ended",
							"type": "bool"
						},
						{
							"internalType": "bool",
							"name": "cancelled",
							"type": "bool"
						}
					],
					"stateMutability": "view",
					"type": "function"
				},
				{
					"inputs": [
						{
							"internalType": "uint256",
							"name": "auctionIndex",
							"type": "uint256"
						}
					],
					"name": "placeBid",
					"outputs": [],
					"stateMutability": "payable",
					"type": "function"
				}
			],
			"devdoc": {
				"kind": "dev",
				"methods": {},
				"version": 1
			},
			"evm": {
				"assembly": "    /* \"contracts/Auction.sol\":60:3771  contract Auction {... */\n  mstore(0x40, 0x80)\n    /* \"contracts/Auction.sol\":1205:1291  constructor() {... */\n  callvalue\n  dup1\n  iszero\n  tag_1\n  jumpi\n  0x00\n  dup1\n  revert\ntag_1:\n  pop\n    /* \"contracts/Auction.sol\":1230:1249  createAuction(0, 0) */\n  tag_4\n    /* \"contracts/Auction.sol\":1244:1245  0 */\n  0x00\n    /* \"contracts/Auction.sol\":1247:1248  0 */\n  dup1\n    /* \"contracts/Auction.sol\":1230:1243  createAuction */\n  shl(0x20, tag_5)\n    /* \"contracts/Auction.sol\":1230:1249  createAuction(0, 0) */\n  0x20\n  shr\n  jump\t// in\ntag_4:\n    /* \"contracts/Auction.sol\":60:3771  contract Auction {... */\n  jump(tag_6)\n    /* \"contracts/Auction.sol\":1299:1581  function createAuction(uint256 _duration, uint256 _reservePrice) public {... */\ntag_5:\n    /* \"contracts/Auction.sol\":1402:1403  0 */\n  0x00\n    /* \"contracts/Auction.sol\":1390:1399  _duration */\n  dup3\n    /* \"contracts/Auction.sol\":1390:1403  _duration > 0 */\n  gt\n    /* \"contracts/Auction.sol\":1382:1451  require(_duration > 0, \"Auction duration must be greater than zero.\") */\n  tag_8\n  jumpi\n  mload(0x40)\n  0x08c379a000000000000000000000000000000000000000000000000000000000\n  dup2\n  mstore\n  0x04\n  add\n  tag_9\n  swap1\n  tag_10\n  jump\t// in\ntag_9:\n  mload(0x40)\n  dup1\n  swap2\n  sub\n  swap1\n  revert\ntag_8:\n    /* \"contracts/Auction.sol\":1462:1470  auctions */\n  0x01\n    /* \"contracts/Auction.sol\":1476:1572  AuctionItem(msg.sender, block.timestamp + _duration, _reservePrice, 0, address(0), false, false) */\n  mload(0x40)\n  dup1\n  0xe0\n  add\n  0x40\n  mstore\n  dup1\n    /* \"contracts/Auction.sol\":1488:1498  msg.sender */\n  caller\n    /* \"contracts/Auction.sol\":1476:1572  AuctionItem(msg.sender, block.timestamp + _duration, _reservePrice, 0, address(0), false, false) */\n  0xffffffffffffffffffffffffffffffffffffffff\n  and\n  dup2\n  mstore\n  0x20\n  add\n    /* \"contracts/Auction.sol\":1518:1527  _duration */\n  dup5\n    /* \"contracts/Auction.sol\":1500:1515  block.timestamp */\n  timestamp\n    /* \"contracts/Auction.sol\":1500:1527  block.timestamp + _duration */\n  tag_11\n  swap2\n  swap1\n  tag_12\n  jump\t// in\ntag_11:\n    /* \"contracts/Auction.sol\":1476:1572  AuctionItem(msg.sender, block.timestamp + _duration, _reservePrice, 0, address(0), false, false) */\n  dup2\n  mstore\n  0x20\n  add\n    /* \"contracts/Auction.sol\":1529:1542  _reservePrice */\n  dup4\n    /* \"contracts/Auction.sol\":1476:1572  AuctionItem(msg.sender, block.timestamp + _duration, _reservePrice, 0, address(0), false, false) */\n  dup2\n  mstore\n  0x20\n  add\n    /* \"contracts/Auction.sol\":1544:1545  0 */\n  0x00\n    /* \"contracts/Auction.sol\":1476:1572  AuctionItem(msg.sender, block.timestamp + _duration, _reservePrice, 0, address(0), false, false) */\n  dup2\n  mstore\n  0x20\n  add\n    /* \"contracts/Auction.sol\":1555:1556  0 */\n  0x00\n    /* \"contracts/Auction.sol\":1476:1572  AuctionItem(msg.sender, block.timestamp + _duration, _reservePrice, 0, address(0), false, false) */\n  0xffffffffffffffffffffffffffffffffffffffff\n  and\n  dup2\n  mstore\n  0x20\n  add\n    /* \"contracts/Auction.sol\":1559:1564  false */\n  0x00\n    /* \"contracts/Auction.sol\":1476:1572  AuctionItem(msg.sender, block.timestamp + _duration, _reservePrice, 0, address(0), false, false) */\n  iszero\n  iszero\n  dup2\n  mstore\n  0x20\n  add\n    /* \"contracts/Auction.sol\":1566:1571  false */\n  0x00\n    /* \"contracts/Auction.sol\":1476:1572  AuctionItem(msg.sender, block.timestamp + _duration, _reservePrice, 0, address(0), false, false) */\n  iszero\n  iszero\n  dup2\n  mstore\n  pop\n    /* \"contracts/Auction.sol\":1462:1573  auctions.push(AuctionItem(msg.sender, block.timestamp + _duration, _reservePrice, 0, address(0), false, false)) */\n  swap1\n  dup1\n  0x01\n  dup2\n  sload\n  add\n  dup1\n  dup3\n  sstore\n  dup1\n  swap2\n  pop\n  pop\n  0x01\n  swap1\n  sub\n  swap1\n  0x00\n  mstore\n  keccak256(0x00, 0x20)\n  swap1\n  0x05\n  mul\n  add\n  0x00\n  swap1\n  swap2\n  swap1\n  swap2\n  swap1\n  swap2\n  pop\n  0x00\n  dup3\n  add\n  mload\n  dup2\n  0x00\n  add\n  exp(0x0100, 0x00)\n  dup2\n  sload\n  dup2\n  0xffffffffffffffffffffffffffffffffffffffff\n  mul\n  not\n  and\n  swap1\n  dup4\n  0xffffffffffffffffffffffffffffffffffffffff\n  and\n  mul\n  or\n  swap1\n  sstore\n  pop\n  0x20\n  dup3\n  add\n  mload\n  dup2\n  0x01\n  add\n  sstore\n  0x40\n  dup3\n  add\n  mload\n  dup2\n  0x02\n  add\n  sstore\n  0x60\n  dup3\n  add\n  mload\n  dup2\n  0x03\n  add\n  sstore\n  0x80\n  dup3\n  add\n  mload\n  dup2\n  0x04\n  add\n  exp(0x0100, 0x00)\n  dup2\n  sload\n  dup2\n  0xffffffffffffffffffffffffffffffffffffffff\n  mul\n  not\n  and\n  swap1\n  dup4\n  0xffffffffffffffffffffffffffffffffffffffff\n  and\n  mul\n  or\n  swap1\n  sstore\n  pop\n  0xa0\n  dup3\n  add\n  mload\n  dup2\n  0x04\n  add\n  exp(0x0100, 0x14)\n  dup2\n  sload\n  dup2\n  0xff\n  mul\n  not\n  and\n  swap1\n  dup4\n  iszero\n  iszero\n  mul\n  or\n  swap1\n  sstore\n  pop\n  0xc0\n  dup3\n  add\n  mload\n  dup2\n  0x04\n  add\n  exp(0x0100, 0x15)\n  dup2\n  sload\n  dup2\n  0xff\n  mul\n  not\n  and\n  swap1\n  dup4\n  iszero\n  iszero\n  mul\n  or\n  swap1\n  sstore\n  pop\n  pop\n  pop\n    /* \"contracts/Auction.sol\":1299:1581  function createAuction(uint256 _duration, uint256 _reservePrice) public {... */\n  pop\n  pop\n  jump\t// out\n    /* \"#utility.yul\":7:176   */\ntag_14:\n    /* \"#utility.yul\":91:102   */\n  0x00\n    /* \"#utility.yul\":125:131   */\n  dup3\n    /* \"#utility.yul\":120:123   */\n  dup3\n    /* \"#utility.yul\":113:132   */\n  mstore\n    /* \"#utility.yul\":165:169   */\n  0x20\n    /* \"#utility.yul\":160:163   */\n  dup3\n    /* \"#utility.yul\":156:170   */\n  add\n    /* \"#utility.yul\":141:170   */\n  swap1\n  pop\n    /* \"#utility.yul\":7:176   */\n  swap3\n  swap2\n  pop\n  pop\n  jump\t// out\n    /* \"#utility.yul\":182:412   */\ntag_15:\n    /* \"#utility.yul\":322:356   */\n  0x41756374696f6e206475726174696f6e206d7573742062652067726561746572\n    /* \"#utility.yul\":318:319   */\n  0x00\n    /* \"#utility.yul\":310:316   */\n  dup3\n    /* \"#utility.yul\":306:320   */\n  add\n    /* \"#utility.yul\":299:357   */\n  mstore\n    /* \"#utility.yul\":391:404   */\n  0x207468616e207a65726f2e000000000000000000000000000000000000000000\n    /* \"#utility.yul\":386:388   */\n  0x20\n    /* \"#utility.yul\":378:384   */\n  dup3\n    /* \"#utility.yul\":374:389   */\n  add\n    /* \"#utility.yul\":367:405   */\n  mstore\n    /* \"#utility.yul\":182:412   */\n  pop\n  jump\t// out\n    /* \"#utility.yul\":418:784   */\ntag_16:\n    /* \"#utility.yul\":560:563   */\n  0x00\n    /* \"#utility.yul\":581:648   */\n  tag_23\n    /* \"#utility.yul\":645:647   */\n  0x2b\n    /* \"#utility.yul\":640:643   */\n  dup4\n    /* \"#utility.yul\":581:648   */\n  tag_14\n  jump\t// in\ntag_23:\n    /* \"#utility.yul\":574:648   */\n  swap2\n  pop\n    /* \"#utility.yul\":657:750   */\n  tag_24\n    /* \"#utility.yul\":746:749   */\n  dup3\n    /* \"#utility.yul\":657:750   */\n  tag_15\n  jump\t// in\ntag_24:\n    /* \"#utility.yul\":775:777   */\n  0x40\n    /* \"#utility.yul\":770:773   */\n  dup3\n    /* \"#utility.yul\":766:778   */\n  add\n    /* \"#utility.yul\":759:778   */\n  swap1\n  pop\n    /* \"#utility.yul\":418:784   */\n  swap2\n  swap1\n  pop\n  jump\t// out\n    /* \"#utility.yul\":790:1209   */\ntag_10:\n    /* \"#utility.yul\":956:960   */\n  0x00\n    /* \"#utility.yul\":994:996   */\n  0x20\n    /* \"#utility.yul\":983:992   */\n  dup3\n    /* \"#utility.yul\":979:997   */\n  add\n    /* \"#utility.yul\":971:997   */\n  swap1\n  pop\n    /* \"#utility.yul\":1043:1052   */\n  dup2\n    /* \"#utility.yul\":1037:1041   */\n  dup2\n    /* \"#utility.yul\":1033:1053   */\n  sub\n    /* \"#utility.yul\":1029:1030   */\n  0x00\n    /* \"#utility.yul\":1018:1027   */\n  dup4\n    /* \"#utility.yul\":1014:1031   */\n  add\n    /* \"#utility.yul\":1007:1054   */\n  mstore\n    /* \"#utility.yul\":1071:1202   */\n  tag_26\n    /* \"#utility.yul\":1197:1201   */\n  dup2\n    /* \"#utility.yul\":1071:1202   */\n  tag_16\n  jump\t// in\ntag_26:\n    /* \"#utility.yul\":1063:1202   */\n  swap1\n  pop\n    /* \"#utility.yul\":790:1209   */\n  swap2\n  swap1\n  pop\n  jump\t// out\n    /* \"#utility.yul\":1215:1292   */\ntag_17:\n    /* \"#utility.yul\":1252:1259   */\n  0x00\n    /* \"#utility.yul\":1281:1286   */\n  dup2\n    /* \"#utility.yul\":1270:1286   */\n  swap1\n  pop\n    /* \"#utility.yul\":1215:1292   */\n  swap2\n  swap1\n  pop\n  jump\t// out\n    /* \"#utility.yul\":1298:1478   */\ntag_18:\n    /* \"#utility.yul\":1346:1423   */\n  0x4e487b7100000000000000000000000000000000000000000000000000000000\n    /* \"#utility.yul\":1343:1344   */\n  0x00\n    /* \"#utility.yul\":1336:1424   */\n  mstore\n    /* \"#utility.yul\":1443:1447   */\n  0x11\n    /* \"#utility.yul\":1440:1441   */\n  0x04\n    /* \"#utility.yul\":1433:1448   */\n  mstore\n    /* \"#utility.yul\":1467:1471   */\n  0x24\n    /* \"#utility.yul\":1464:1465   */\n  0x00\n    /* \"#utility.yul\":1457:1472   */\n  revert\n    /* \"#utility.yul\":1484:1675   */\ntag_12:\n    /* \"#utility.yul\":1524:1527   */\n  0x00\n    /* \"#utility.yul\":1543:1563   */\n  tag_30\n    /* \"#utility.yul\":1561:1562   */\n  dup3\n    /* \"#utility.yul\":1543:1563   */\n  tag_17\n  jump\t// in\ntag_30:\n    /* \"#utility.yul\":1538:1563   */\n  swap2\n  pop\n    /* \"#utility.yul\":1577:1597   */\n  tag_31\n    /* \"#utility.yul\":1595:1596   */\n  dup4\n    /* \"#utility.yul\":1577:1597   */\n  tag_17\n  jump\t// in\ntag_31:\n    /* \"#utility.yul\":1572:1597   */\n  swap3\n  pop\n    /* \"#utility.yul\":1620:1621   */\n  dup3\n    /* \"#utility.yul\":1617:1618   */\n  dup3\n    /* \"#utility.yul\":1613:1622   */\n  add\n    /* \"#utility.yul\":1606:1622   */\n  swap1\n  pop\n    /* \"#utility.yul\":1641:1644   */\n  dup1\n    /* \"#utility.yul\":1638:1639   */\n  dup3\n    /* \"#utility.yul\":1635:1645   */\n  gt\n    /* \"#utility.yul\":1632:1668   */\n  iszero\n  tag_32\n  jumpi\n    /* \"#utility.yul\":1648:1666   */\n  tag_33\n  tag_18\n  jump\t// in\ntag_33:\n    /* \"#utility.yul\":1632:1668   */\ntag_32:\n    /* \"#utility.yul\":1484:1675   */\n  swap3\n  swap2\n  pop\n  pop\n  jump\t// out\n    /* \"contracts/Auction.sol\":60:3771  contract Auction {... */\ntag_6:\n  dataSize(sub_0)\n  dup1\n  dataOffset(sub_0)\n  0x00\n  codecopy\n  0x00\n  return\nstop\n\nsub_0: assembly {\n        /* \"contracts/Auction.sol\":60:3771  contract Auction {... */\n      mstore(0x40, 0x80)\n      jumpi(tag_1, lt(calldatasize, 0x04))\n      shr(0xe0, calldataload(0x00))\n      dup1\n      0x96b5a755\n      gt\n      tag_9\n      jumpi\n      dup1\n      0x96b5a755\n      eq\n      tag_5\n      jumpi\n      dup1\n      0x9979ef45\n      eq\n      tag_6\n      jumpi\n      dup1\n      0xb9a2de3a\n      eq\n      tag_7\n      jumpi\n      dup1\n      0xf20e5e35\n      eq\n      tag_8\n      jumpi\n      jump(tag_1)\n    tag_9:\n      dup1\n      0x0121683f\n      eq\n      tag_2\n      jumpi\n      dup1\n      0x3f1ffcec\n      eq\n      tag_3\n      jumpi\n      dup1\n      0x571a26a0\n      eq\n      tag_4\n      jumpi\n    tag_1:\n      0x00\n      dup1\n      revert\n        /* \"contracts/Auction.sol\":1299:1581  function createAuction(uint256 _duration, uint256 _reservePrice) public {... */\n    tag_2:\n      callvalue\n      dup1\n      iszero\n      tag_10\n      jumpi\n      0x00\n      dup1\n      revert\n    tag_10:\n      pop\n      tag_11\n      0x04\n      dup1\n      calldatasize\n      sub\n      dup2\n      add\n      swap1\n      tag_12\n      swap2\n      swap1\n      tag_13\n      jump\t// in\n    tag_12:\n      tag_14\n      jump\t// in\n    tag_11:\n      stop\n        /* \"contracts/Auction.sol\":396:451  mapping(uint256 => mapping(address => Bid)) public bids */\n    tag_3:\n      callvalue\n      dup1\n      iszero\n      tag_15\n      jumpi\n      0x00\n      dup1\n      revert\n    tag_15:\n      pop\n      tag_16\n      0x04\n      dup1\n      calldatasize\n      sub\n      dup2\n      add\n      swap1\n      tag_17\n      swap2\n      swap1\n      tag_18\n      jump\t// in\n    tag_17:\n      tag_19\n      jump\t// in\n    tag_16:\n      mload(0x40)\n      tag_20\n      swap3\n      swap2\n      swap1\n      tag_21\n      jump\t// in\n    tag_20:\n      mload(0x40)\n      dup1\n      swap2\n      sub\n      swap1\n      return\n        /* \"contracts/Auction.sol\":458:487  AuctionItem[] public auctions */\n    tag_4:\n      callvalue\n      dup1\n      iszero\n      tag_22\n      jumpi\n      0x00\n      dup1\n      revert\n    tag_22:\n      pop\n      tag_23\n      0x04\n      dup1\n      calldatasize\n      sub\n      dup2\n      add\n      swap1\n      tag_24\n      swap2\n      swap1\n      tag_25\n      jump\t// in\n    tag_24:\n      tag_26\n      jump\t// in\n    tag_23:\n      mload(0x40)\n      tag_27\n      swap8\n      swap7\n      swap6\n      swap5\n      swap4\n      swap3\n      swap2\n      swap1\n      tag_28\n      jump\t// in\n    tag_27:\n      mload(0x40)\n      dup1\n      swap2\n      sub\n      swap1\n      return\n        /* \"contracts/Auction.sol\":2857:3149  function cancelAuction(uint256 auctionIndex) public onlyAuctioneer(auctionIndex) onlyBeforeEnd(auctionIndex) onlyNotCancelled(auctionIndex) {... */\n    tag_5:\n      callvalue\n      dup1\n      iszero\n      tag_29\n      jumpi\n      0x00\n      dup1\n      revert\n    tag_29:\n      pop\n      tag_30\n      0x04\n      dup1\n      calldatasize\n      sub\n      dup2\n      add\n      swap1\n      tag_31\n      swap2\n      swap1\n      tag_25\n      jump\t// in\n    tag_31:\n      tag_32\n      jump\t// in\n    tag_30:\n      stop\n        /* \"contracts/Auction.sol\":1589:2350  function placeBid(uint256 auctionIndex) public payable onlyBeforeEnd(auctionIndex) onlyNotCancelled(auctionIndex) {... */\n    tag_6:\n      tag_33\n      0x04\n      dup1\n      calldatasize\n      sub\n      dup2\n      add\n      swap1\n      tag_34\n      swap2\n      swap1\n      tag_25\n      jump\t// in\n    tag_34:\n      tag_35\n      jump\t// in\n    tag_33:\n      stop\n        /* \"contracts/Auction.sol\":2358:2849  function endAuction(uint256 auctionIndex) public onlyAuctioneer(auctionIndex) onlyBeforeEnd(auctionIndex) onlyNotCancelled(auctionIndex) {... */\n    tag_7:\n      callvalue\n      dup1\n      iszero\n      tag_36\n      jumpi\n      0x00\n      dup1\n      revert\n    tag_36:\n      pop\n      tag_37\n      0x04\n      dup1\n      calldatasize\n      sub\n      dup2\n      add\n      swap1\n      tag_38\n      swap2\n      swap1\n      tag_25\n      jump\t// in\n    tag_38:\n      tag_39\n      jump\t// in\n    tag_37:\n      stop\n        /* \"contracts/Auction.sol\":3157:3768  function getAuctionDetails(uint256 auctionIndex) public view returns (... */\n    tag_8:\n      callvalue\n      dup1\n      iszero\n      tag_40\n      jumpi\n      0x00\n      dup1\n      revert\n    tag_40:\n      pop\n      tag_41\n      0x04\n      dup1\n      calldatasize\n      sub\n      dup2\n      add\n      swap1\n      tag_42\n      swap2\n      swap1\n      tag_25\n      jump\t// in\n    tag_42:\n      tag_43\n      jump\t// in\n    tag_41:\n      mload(0x40)\n      tag_44\n      swap8\n      swap7\n      swap6\n      swap5\n      swap4\n      swap3\n      swap2\n      swap1\n      tag_28\n      jump\t// in\n    tag_44:\n      mload(0x40)\n      dup1\n      swap2\n      sub\n      swap1\n      return\n        /* \"contracts/Auction.sol\":1299:1581  function createAuction(uint256 _duration, uint256 _reservePrice) public {... */\n    tag_14:\n        /* \"contracts/Auction.sol\":1402:1403  0 */\n      0x00\n        /* \"contracts/Auction.sol\":1390:1399  _duration */\n      dup3\n        /* \"contracts/Auction.sol\":1390:1403  _duration > 0 */\n      gt\n        /* \"contracts/Auction.sol\":1382:1451  require(_duration > 0, \"Auction duration must be greater than zero.\") */\n      tag_46\n      jumpi\n      mload(0x40)\n      0x08c379a000000000000000000000000000000000000000000000000000000000\n      dup2\n      mstore\n      0x04\n      add\n      tag_47\n      swap1\n      tag_48\n      jump\t// in\n    tag_47:\n      mload(0x40)\n      dup1\n      swap2\n      sub\n      swap1\n      revert\n    tag_46:\n        /* \"contracts/Auction.sol\":1462:1470  auctions */\n      0x01\n        /* \"contracts/Auction.sol\":1476:1572  AuctionItem(msg.sender, block.timestamp + _duration, _reservePrice, 0, address(0), false, false) */\n      mload(0x40)\n      dup1\n      0xe0\n      add\n      0x40\n      mstore\n      dup1\n        /* \"contracts/Auction.sol\":1488:1498  msg.sender */\n      caller\n        /* \"contracts/Auction.sol\":1476:1572  AuctionItem(msg.sender, block.timestamp + _duration, _reservePrice, 0, address(0), false, false) */\n      0xffffffffffffffffffffffffffffffffffffffff\n      and\n      dup2\n      mstore\n      0x20\n      add\n        /* \"contracts/Auction.sol\":1518:1527  _duration */\n      dup5\n        /* \"contracts/Auction.sol\":1500:1515  block.timestamp */\n      timestamp\n        /* \"contracts/Auction.sol\":1500:1527  block.timestamp + _duration */\n      tag_49\n      swap2\n      swap1\n      tag_50\n      jump\t// in\n    tag_49:\n        /* \"contracts/Auction.sol\":1476:1572  AuctionItem(msg.sender, block.timestamp + _duration, _reservePrice, 0, address(0), false, false) */\n      dup2\n      mstore\n      0x20\n      add\n        /* \"contracts/Auction.sol\":1529:1542  _reservePrice */\n      dup4\n        /* \"contracts/Auction.sol\":1476:1572  AuctionItem(msg.sender, block.timestamp + _duration, _reservePrice, 0, address(0), false, false) */\n      dup2\n      mstore\n      0x20\n      add\n        /* \"contracts/Auction.sol\":1544:1545  0 */\n      0x00\n        /* \"contracts/Auction.sol\":1476:1572  AuctionItem(msg.sender, block.timestamp + _duration, _reservePrice, 0, address(0), false, false) */\n      dup2\n      mstore\n      0x20\n      add\n        /* \"contracts/Auction.sol\":1555:1556  0 */\n      0x00\n        /* \"contracts/Auction.sol\":1476:1572  AuctionItem(msg.sender, block.timestamp + _duration, _reservePrice, 0, address(0), false, false) */\n      0xffffffffffffffffffffffffffffffffffffffff\n      and\n      dup2\n      mstore\n      0x20\n      add\n        /* \"contracts/Auction.sol\":1559:1564  false */\n      0x00\n        /* \"contracts/Auction.sol\":1476:1572  AuctionItem(msg.sender, block.timestamp + _duration, _reservePrice, 0, address(0), false, false) */\n      iszero\n      iszero\n      dup2\n      mstore\n      0x20\n      add\n        /* \"contracts/Auction.sol\":1566:1571  false */\n      0x00\n        /* \"contracts/Auction.sol\":1476:1572  AuctionItem(msg.sender, block.timestamp + _duration, _reservePrice, 0, address(0), false, false) */\n      iszero\n      iszero\n      dup2\n      mstore\n      pop\n        /* \"contracts/Auction.sol\":1462:1573  auctions.push(AuctionItem(msg.sender, block.timestamp + _duration, _reservePrice, 0, address(0), false, false)) */\n      swap1\n      dup1\n      0x01\n      dup2\n      sload\n      add\n      dup1\n      dup3\n      sstore\n      dup1\n      swap2\n      pop\n      pop\n      0x01\n      swap1\n      sub\n      swap1\n      0x00\n      mstore\n      keccak256(0x00, 0x20)\n      swap1\n      0x05\n      mul\n      add\n      0x00\n      swap1\n      swap2\n      swap1\n      swap2\n      swap1\n      swap2\n      pop\n      0x00\n      dup3\n      add\n      mload\n      dup2\n      0x00\n      add\n      exp(0x0100, 0x00)\n      dup2\n      sload\n      dup2\n      0xffffffffffffffffffffffffffffffffffffffff\n      mul\n      not\n      and\n      swap1\n      dup4\n      0xffffffffffffffffffffffffffffffffffffffff\n      and\n      mul\n      or\n      swap1\n      sstore\n      pop\n      0x20\n      dup3\n      add\n      mload\n      dup2\n      0x01\n      add\n      sstore\n      0x40\n      dup3\n      add\n      mload\n      dup2\n      0x02\n      add\n      sstore\n      0x60\n      dup3\n      add\n      mload\n      dup2\n      0x03\n      add\n      sstore\n      0x80\n      dup3\n      add\n      mload\n      dup2\n      0x04\n      add\n      exp(0x0100, 0x00)\n      dup2\n      sload\n      dup2\n      0xffffffffffffffffffffffffffffffffffffffff\n      mul\n      not\n      and\n      swap1\n      dup4\n      0xffffffffffffffffffffffffffffffffffffffff\n      and\n      mul\n      or\n      swap1\n      sstore\n      pop\n      0xa0\n      dup3\n      add\n      mload\n      dup2\n      0x04\n      add\n      exp(0x0100, 0x14)\n      dup2\n      sload\n      dup2\n      0xff\n      mul\n      not\n      and\n      swap1\n      dup4\n      iszero\n      iszero\n      mul\n      or\n      swap1\n      sstore\n      pop\n      0xc0\n      dup3\n      add\n      mload\n      dup2\n      0x04\n      add\n      exp(0x0100, 0x15)\n      dup2\n      sload\n      dup2\n      0xff\n      mul\n      not\n      and\n      swap1\n      dup4\n      iszero\n      iszero\n      mul\n      or\n      swap1\n      sstore\n      pop\n      pop\n      pop\n        /* \"contracts/Auction.sol\":1299:1581  function createAuction(uint256 _duration, uint256 _reservePrice) public {... */\n      pop\n      pop\n      jump\t// out\n        /* \"contracts/Auction.sol\":396:451  mapping(uint256 => mapping(address => Bid)) public bids */\n    tag_19:\n      mstore(0x20, 0x00)\n      dup2\n      0x00\n      mstore\n      mstore(0x20, keccak256(0x00, 0x40))\n      dup1\n      0x00\n      mstore\n      keccak256(0x00, 0x40)\n      0x00\n      swap2\n      pop\n      swap2\n      pop\n      pop\n      dup1\n      0x00\n      add\n      0x00\n      swap1\n      sload\n      swap1\n      0x0100\n      exp\n      swap1\n      div\n      0xffffffffffffffffffffffffffffffffffffffff\n      and\n      swap1\n      dup1\n      0x01\n      add\n      sload\n      swap1\n      pop\n      dup3\n      jump\t// out\n        /* \"contracts/Auction.sol\":458:487  AuctionItem[] public auctions */\n    tag_26:\n      0x01\n      dup2\n      dup2\n      sload\n      dup2\n      lt\n      tag_52\n      jumpi\n      0x00\n      dup1\n      revert\n    tag_52:\n      swap1\n      0x00\n      mstore\n      keccak256(0x00, 0x20)\n      swap1\n      0x05\n      mul\n      add\n      0x00\n      swap2\n      pop\n      swap1\n      pop\n      dup1\n      0x00\n      add\n      0x00\n      swap1\n      sload\n      swap1\n      0x0100\n      exp\n      swap1\n      div\n      0xffffffffffffffffffffffffffffffffffffffff\n      and\n      swap1\n      dup1\n      0x01\n      add\n      sload\n      swap1\n      dup1\n      0x02\n      add\n      sload\n      swap1\n      dup1\n      0x03\n      add\n      sload\n      swap1\n      dup1\n      0x04\n      add\n      0x00\n      swap1\n      sload\n      swap1\n      0x0100\n      exp\n      swap1\n      div\n      0xffffffffffffffffffffffffffffffffffffffff\n      and\n      swap1\n      dup1\n      0x04\n      add\n      0x14\n      swap1\n      sload\n      swap1\n      0x0100\n      exp\n      swap1\n      div\n      0xff\n      and\n      swap1\n      dup1\n      0x04\n      add\n      0x15\n      swap1\n      sload\n      swap1\n      0x0100\n      exp\n      swap1\n      div\n      0xff\n      and\n      swap1\n      pop\n      dup8\n      jump\t// out\n        /* \"contracts/Auction.sol\":2857:3149  function cancelAuction(uint256 auctionIndex) public onlyAuctioneer(auctionIndex) onlyBeforeEnd(auctionIndex) onlyNotCancelled(auctionIndex) {... */\n    tag_32:\n        /* \"contracts/Auction.sol\":2924:2936  auctionIndex */\n      dup1\n        /* \"contracts/Auction.sol\":1095:1103  auctions */\n      0x01\n        /* \"contracts/Auction.sol\":1104:1116  auctionIndex */\n      dup2\n        /* \"contracts/Auction.sol\":1095:1117  auctions[auctionIndex] */\n      dup2\n      sload\n      dup2\n      lt\n      tag_55\n      jumpi\n      tag_56\n      tag_57\n      jump\t// in\n    tag_56:\n    tag_55:\n      swap1\n      0x00\n      mstore\n      keccak256(0x00, 0x20)\n      swap1\n      0x05\n      mul\n      add\n        /* \"contracts/Auction.sol\":1095:1128  auctions[auctionIndex].auctioneer */\n      0x00\n      add\n      0x00\n      swap1\n      sload\n      swap1\n      0x0100\n      exp\n      swap1\n      div\n      0xffffffffffffffffffffffffffffffffffffffff\n      and\n        /* \"contracts/Auction.sol\":1081:1128  msg.sender == auctions[auctionIndex].auctioneer */\n      0xffffffffffffffffffffffffffffffffffffffff\n      and\n        /* \"contracts/Auction.sol\":1081:1091  msg.sender */\n      caller\n        /* \"contracts/Auction.sol\":1081:1128  msg.sender == auctions[auctionIndex].auctioneer */\n      0xffffffffffffffffffffffffffffffffffffffff\n      and\n      eq\n        /* \"contracts/Auction.sol\":1073:1177  require(msg.sender == auctions[auctionIndex].auctioneer, \"Only the auctioneer can perform this action.\") */\n      tag_59\n      jumpi\n      mload(0x40)\n      0x08c379a000000000000000000000000000000000000000000000000000000000\n      dup2\n      mstore\n      0x04\n      add\n      tag_60\n      swap1\n      tag_61\n      jump\t// in\n    tag_60:\n      mload(0x40)\n      dup1\n      swap2\n      sub\n      swap1\n      revert\n    tag_59:\n        /* \"contracts/Auction.sol\":2952:2964  auctionIndex */\n      dup2\n        /* \"contracts/Auction.sol\":769:777  auctions */\n      0x01\n        /* \"contracts/Auction.sol\":778:790  auctionIndex */\n      dup2\n        /* \"contracts/Auction.sol\":769:791  auctions[auctionIndex] */\n      dup2\n      sload\n      dup2\n      lt\n      tag_63\n      jumpi\n      tag_64\n      tag_57\n      jump\t// in\n    tag_64:\n    tag_63:\n      swap1\n      0x00\n      mstore\n      keccak256(0x00, 0x20)\n      swap1\n      0x05\n      mul\n      add\n        /* \"contracts/Auction.sol\":769:797  auctions[auctionIndex].ended */\n      0x04\n      add\n      0x14\n      swap1\n      sload\n      swap1\n      0x0100\n      exp\n      swap1\n      div\n      0xff\n      and\n        /* \"contracts/Auction.sol\":768:797  !auctions[auctionIndex].ended */\n      iszero\n        /* \"contracts/Auction.sol\":760:828  require(!auctions[auctionIndex].ended, \"Auction has already ended.\") */\n      tag_66\n      jumpi\n      mload(0x40)\n      0x08c379a000000000000000000000000000000000000000000000000000000000\n      dup2\n      mstore\n      0x04\n      add\n      tag_67\n      swap1\n      tag_68\n      jump\t// in\n    tag_67:\n      mload(0x40)\n      dup1\n      swap2\n      sub\n      swap1\n      revert\n    tag_66:\n        /* \"contracts/Auction.sol\":2983:2995  auctionIndex */\n      dup3\n        /* \"contracts/Auction.sol\":924:932  auctions */\n      0x01\n        /* \"contracts/Auction.sol\":933:945  auctionIndex */\n      dup2\n        /* \"contracts/Auction.sol\":924:946  auctions[auctionIndex] */\n      dup2\n      sload\n      dup2\n      lt\n      tag_70\n      jumpi\n      tag_71\n      tag_57\n      jump\t// in\n    tag_71:\n    tag_70:\n      swap1\n      0x00\n      mstore\n      keccak256(0x00, 0x20)\n      swap1\n      0x05\n      mul\n      add\n        /* \"contracts/Auction.sol\":924:956  auctions[auctionIndex].cancelled */\n      0x04\n      add\n      0x15\n      swap1\n      sload\n      swap1\n      0x0100\n      exp\n      swap1\n      div\n      0xff\n      and\n        /* \"contracts/Auction.sol\":923:956  !auctions[auctionIndex].cancelled */\n      iszero\n        /* \"contracts/Auction.sol\":915:988  require(!auctions[auctionIndex].cancelled, \"Auction has been cancelled.\") */\n      tag_73\n      jumpi\n      mload(0x40)\n      0x08c379a000000000000000000000000000000000000000000000000000000000\n      dup2\n      mstore\n      0x04\n      add\n      tag_74\n      swap1\n      tag_75\n      jump\t// in\n    tag_74:\n      mload(0x40)\n      dup1\n      swap2\n      sub\n      swap1\n      revert\n    tag_73:\n        /* \"contracts/Auction.sol\":3008:3035  AuctionItem storage auction */\n      0x00\n        /* \"contracts/Auction.sol\":3038:3046  auctions */\n      0x01\n        /* \"contracts/Auction.sol\":3047:3059  auctionIndex */\n      dup6\n        /* \"contracts/Auction.sol\":3038:3060  auctions[auctionIndex] */\n      dup2\n      sload\n      dup2\n      lt\n      tag_77\n      jumpi\n      tag_78\n      tag_57\n      jump\t// in\n    tag_78:\n    tag_77:\n      swap1\n      0x00\n      mstore\n      keccak256(0x00, 0x20)\n      swap1\n      0x05\n      mul\n      add\n        /* \"contracts/Auction.sol\":3008:3060  AuctionItem storage auction = auctions[auctionIndex] */\n      swap1\n      pop\n        /* \"contracts/Auction.sol\":3091:3095  true */\n      0x01\n        /* \"contracts/Auction.sol\":3071:3078  auction */\n      dup2\n        /* \"contracts/Auction.sol\":3071:3088  auction.cancelled */\n      0x04\n      add\n      0x15\n        /* \"contracts/Auction.sol\":3071:3095  auction.cancelled = true */\n      0x0100\n      exp\n      dup2\n      sload\n      dup2\n      0xff\n      mul\n      not\n      and\n      swap1\n      dup4\n      iszero\n      iszero\n      mul\n      or\n      swap1\n      sstore\n      pop\n        /* \"contracts/Auction.sol\":3111:3141  AuctionCancelled(auctionIndex) */\n      0x2809c7e17bf978fbc7194c0a694b638c4215e9140cacc6c38ca36010b45697df\n        /* \"contracts/Auction.sol\":3128:3140  auctionIndex */\n      dup6\n        /* \"contracts/Auction.sol\":3111:3141  AuctionCancelled(auctionIndex) */\n      mload(0x40)\n      tag_80\n      swap2\n      swap1\n      tag_81\n      jump\t// in\n    tag_80:\n      mload(0x40)\n      dup1\n      swap2\n      sub\n      swap1\n      log1\n        /* \"contracts/Auction.sol\":2997:3149  {... */\n      pop\n        /* \"contracts/Auction.sol\":839:840  _ */\n      pop\n        /* \"contracts/Auction.sol\":1188:1189  _ */\n      pop\n        /* \"contracts/Auction.sol\":2857:3149  function cancelAuction(uint256 auctionIndex) public onlyAuctioneer(auctionIndex) onlyBeforeEnd(auctionIndex) onlyNotCancelled(auctionIndex) {... */\n      pop\n      pop\n      jump\t// out\n        /* \"contracts/Auction.sol\":1589:2350  function placeBid(uint256 auctionIndex) public payable onlyBeforeEnd(auctionIndex) onlyNotCancelled(auctionIndex) {... */\n    tag_35:\n        /* \"contracts/Auction.sol\":1658:1670  auctionIndex */\n      dup1\n        /* \"contracts/Auction.sol\":769:777  auctions */\n      0x01\n        /* \"contracts/Auction.sol\":778:790  auctionIndex */\n      dup2\n        /* \"contracts/Auction.sol\":769:791  auctions[auctionIndex] */\n      dup2\n      sload\n      dup2\n      lt\n      tag_83\n      jumpi\n      tag_84\n      tag_57\n      jump\t// in\n    tag_84:\n    tag_83:\n      swap1\n      0x00\n      mstore\n      keccak256(0x00, 0x20)\n      swap1\n      0x05\n      mul\n      add\n        /* \"contracts/Auction.sol\":769:797  auctions[auctionIndex].ended */\n      0x04\n      add\n      0x14\n      swap1\n      sload\n      swap1\n      0x0100\n      exp\n      swap1\n      div\n      0xff\n      and\n        /* \"contracts/Auction.sol\":768:797  !auctions[auctionIndex].ended */\n      iszero\n        /* \"contracts/Auction.sol\":760:828  require(!auctions[auctionIndex].ended, \"Auction has already ended.\") */\n      tag_86\n      jumpi\n      mload(0x40)\n      0x08c379a000000000000000000000000000000000000000000000000000000000\n      dup2\n      mstore\n      0x04\n      add\n      tag_87\n      swap1\n      tag_68\n      jump\t// in\n    tag_87:\n      mload(0x40)\n      dup1\n      swap2\n      sub\n      swap1\n      revert\n    tag_86:\n        /* \"contracts/Auction.sol\":1689:1701  auctionIndex */\n      dup2\n        /* \"contracts/Auction.sol\":924:932  auctions */\n      0x01\n        /* \"contracts/Auction.sol\":933:945  auctionIndex */\n      dup2\n        /* \"contracts/Auction.sol\":924:946  auctions[auctionIndex] */\n      dup2\n      sload\n      dup2\n      lt\n      tag_89\n      jumpi\n      tag_90\n      tag_57\n      jump\t// in\n    tag_90:\n    tag_89:\n      swap1\n      0x00\n      mstore\n      keccak256(0x00, 0x20)\n      swap1\n      0x05\n      mul\n      add\n        /* \"contracts/Auction.sol\":924:956  auctions[auctionIndex].cancelled */\n      0x04\n      add\n      0x15\n      swap1\n      sload\n      swap1\n      0x0100\n      exp\n      swap1\n      div\n      0xff\n      and\n        /* \"contracts/Auction.sol\":923:956  !auctions[auctionIndex].cancelled */\n      iszero\n        /* \"contracts/Auction.sol\":915:988  require(!auctions[auctionIndex].cancelled, \"Auction has been cancelled.\") */\n      tag_92\n      jumpi\n      mload(0x40)\n      0x08c379a000000000000000000000000000000000000000000000000000000000\n      dup2\n      mstore\n      0x04\n      add\n      tag_93\n      swap1\n      tag_75\n      jump\t// in\n    tag_93:\n      mload(0x40)\n      dup1\n      swap2\n      sub\n      swap1\n      revert\n    tag_92:\n        /* \"contracts/Auction.sol\":1714:1741  AuctionItem storage auction */\n      0x00\n        /* \"contracts/Auction.sol\":1744:1752  auctions */\n      0x01\n        /* \"contracts/Auction.sol\":1753:1765  auctionIndex */\n      dup5\n        /* \"contracts/Auction.sol\":1744:1766  auctions[auctionIndex] */\n      dup2\n      sload\n      dup2\n      lt\n      tag_95\n      jumpi\n      tag_96\n      tag_57\n      jump\t// in\n    tag_96:\n    tag_95:\n      swap1\n      0x00\n      mstore\n      keccak256(0x00, 0x20)\n      swap1\n      0x05\n      mul\n      add\n        /* \"contracts/Auction.sol\":1714:1766  AuctionItem storage auction = auctions[auctionIndex] */\n      swap1\n      pop\n        /* \"contracts/Auction.sol\":1797:1804  auction */\n      dup1\n        /* \"contracts/Auction.sol\":1797:1815  auction.highestBid */\n      0x03\n      add\n      sload\n        /* \"contracts/Auction.sol\":1785:1794  msg.value */\n      callvalue\n        /* \"contracts/Auction.sol\":1785:1815  msg.value > auction.highestBid */\n      gt\n        /* \"contracts/Auction.sol\":1777:1875  require(msg.value > auction.highestBid, \"Bid amount must be higher than the current highest bid.\") */\n      tag_98\n      jumpi\n      mload(0x40)\n      0x08c379a000000000000000000000000000000000000000000000000000000000\n      dup2\n      mstore\n      0x04\n      add\n      tag_99\n      swap1\n      tag_100\n      jump\t// in\n    tag_99:\n      mload(0x40)\n      dup1\n      swap2\n      sub\n      swap1\n      revert\n    tag_98:\n        /* \"contracts/Auction.sol\":1907:1914  auction */\n      dup1\n        /* \"contracts/Auction.sol\":1907:1927  auction.reservePrice */\n      0x02\n      add\n      sload\n        /* \"contracts/Auction.sol\":1894:1903  msg.value */\n      callvalue\n        /* \"contracts/Auction.sol\":1894:1927  msg.value >= auction.reservePrice */\n      lt\n      iszero\n        /* \"contracts/Auction.sol\":1886:1981  require(msg.value >= auction.reservePrice, \"Bid amount must meet or exceed the reserve price.\") */\n      tag_101\n      jumpi\n      mload(0x40)\n      0x08c379a000000000000000000000000000000000000000000000000000000000\n      dup2\n      mstore\n      0x04\n      add\n      tag_102\n      swap1\n      tag_103\n      jump\t// in\n    tag_102:\n      mload(0x40)\n      dup1\n      swap2\n      sub\n      swap1\n      revert\n    tag_101:\n        /* \"contracts/Auction.sol\":2031:2032  0 */\n      0x00\n        /* \"contracts/Auction.sol\":1998:2033  auction.highestBidder != address(0) */\n      0xffffffffffffffffffffffffffffffffffffffff\n      and\n        /* \"contracts/Auction.sol\":1998:2005  auction */\n      dup2\n        /* \"contracts/Auction.sol\":1998:2019  auction.highestBidder */\n      0x04\n      add\n      0x00\n      swap1\n      sload\n      swap1\n      0x0100\n      exp\n      swap1\n      div\n      0xffffffffffffffffffffffffffffffffffffffff\n      and\n        /* \"contracts/Auction.sol\":1998:2033  auction.highestBidder != address(0) */\n      0xffffffffffffffffffffffffffffffffffffffff\n      and\n      eq\n        /* \"contracts/Auction.sol\":1994:2121  if (auction.highestBidder != address(0)) {... */\n      tag_104\n      jumpi\n        /* \"contracts/Auction.sol\":2058:2065  auction */\n      dup1\n        /* \"contracts/Auction.sol\":2058:2079  auction.highestBidder */\n      0x04\n      add\n      0x00\n      swap1\n      sload\n      swap1\n      0x0100\n      exp\n      swap1\n      div\n      0xffffffffffffffffffffffffffffffffffffffff\n      and\n        /* \"contracts/Auction.sol\":2050:2089  payable(auction.highestBidder).transfer */\n      0xffffffffffffffffffffffffffffffffffffffff\n      and\n        /* \"contracts/Auction.sol\":2050:2109  payable(auction.highestBidder).transfer(auction.highestBid) */\n      0x08fc\n        /* \"contracts/Auction.sol\":2090:2097  auction */\n      dup3\n        /* \"contracts/Auction.sol\":2090:2108  auction.highestBid */\n      0x03\n      add\n      sload\n        /* \"contracts/Auction.sol\":2050:2109  payable(auction.highestBidder).transfer(auction.highestBid) */\n      swap1\n      dup2\n      iszero\n      mul\n      swap1\n      mload(0x40)\n      0x00\n      mload(0x40)\n      dup1\n      dup4\n      sub\n      dup2\n      dup6\n      dup9\n      dup9\n      call\n      swap4\n      pop\n      pop\n      pop\n      pop\n      iszero\n      dup1\n      iszero\n      tag_106\n      jumpi\n      returndatasize\n      0x00\n      dup1\n      returndatacopy\n      revert(0x00, returndatasize)\n    tag_106:\n      pop\n        /* \"contracts/Auction.sol\":1994:2121  if (auction.highestBidder != address(0)) {... */\n    tag_104:\n        /* \"contracts/Auction.sol\":2154:2163  msg.value */\n      callvalue\n        /* \"contracts/Auction.sol\":2133:2140  auction */\n      dup2\n        /* \"contracts/Auction.sol\":2133:2151  auction.highestBid */\n      0x03\n      add\n        /* \"contracts/Auction.sol\":2133:2163  auction.highestBid = msg.value */\n      dup2\n      swap1\n      sstore\n      pop\n        /* \"contracts/Auction.sol\":2198:2208  msg.sender */\n      caller\n        /* \"contracts/Auction.sol\":2174:2181  auction */\n      dup2\n        /* \"contracts/Auction.sol\":2174:2195  auction.highestBidder */\n      0x04\n      add\n      0x00\n        /* \"contracts/Auction.sol\":2174:2208  auction.highestBidder = msg.sender */\n      0x0100\n      exp\n      dup2\n      sload\n      dup2\n      0xffffffffffffffffffffffffffffffffffffffff\n      mul\n      not\n      and\n      swap1\n      dup4\n      0xffffffffffffffffffffffffffffffffffffffff\n      and\n      mul\n      or\n      swap1\n      sstore\n      pop\n        /* \"contracts/Auction.sol\":2252:2278  Bid(msg.sender, msg.value) */\n      mload(0x40)\n      dup1\n      0x40\n      add\n      0x40\n      mstore\n      dup1\n        /* \"contracts/Auction.sol\":2256:2266  msg.sender */\n      caller\n        /* \"contracts/Auction.sol\":2252:2278  Bid(msg.sender, msg.value) */\n      0xffffffffffffffffffffffffffffffffffffffff\n      and\n      dup2\n      mstore\n      0x20\n      add\n        /* \"contracts/Auction.sol\":2268:2277  msg.value */\n      callvalue\n        /* \"contracts/Auction.sol\":2252:2278  Bid(msg.sender, msg.value) */\n      dup2\n      mstore\n      pop\n        /* \"contracts/Auction.sol\":2219:2223  bids */\n      0x00\n        /* \"contracts/Auction.sol\":2219:2237  bids[auctionIndex] */\n      dup1\n        /* \"contracts/Auction.sol\":2224:2236  auctionIndex */\n      dup7\n        /* \"contracts/Auction.sol\":2219:2237  bids[auctionIndex] */\n      dup2\n      mstore\n      0x20\n      add\n      swap1\n      dup2\n      mstore\n      0x20\n      add\n      0x00\n      keccak256\n        /* \"contracts/Auction.sol\":2219:2249  bids[auctionIndex][msg.sender] */\n      0x00\n        /* \"contracts/Auction.sol\":2238:2248  msg.sender */\n      caller\n        /* \"contracts/Auction.sol\":2219:2249  bids[auctionIndex][msg.sender] */\n      0xffffffffffffffffffffffffffffffffffffffff\n      and\n      0xffffffffffffffffffffffffffffffffffffffff\n      and\n      dup2\n      mstore\n      0x20\n      add\n      swap1\n      dup2\n      mstore\n      0x20\n      add\n      0x00\n      keccak256\n        /* \"contracts/Auction.sol\":2219:2278  bids[auctionIndex][msg.sender] = Bid(msg.sender, msg.value) */\n      0x00\n      dup3\n      add\n      mload\n      dup2\n      0x00\n      add\n      exp(0x0100, 0x00)\n      dup2\n      sload\n      dup2\n      0xffffffffffffffffffffffffffffffffffffffff\n      mul\n      not\n      and\n      swap1\n      dup4\n      0xffffffffffffffffffffffffffffffffffffffff\n      and\n      mul\n      or\n      swap1\n      sstore\n      pop\n      0x20\n      dup3\n      add\n      mload\n      dup2\n      0x01\n      add\n      sstore\n      swap1\n      pop\n      pop\n        /* \"contracts/Auction.sol\":2296:2342  BidPlaced(auctionIndex, msg.sender, msg.value) */\n      0x0e54eff26401bf69b81b26f60bd85ef47f5d85275c1d268d84f68d6897431c47\n        /* \"contracts/Auction.sol\":2306:2318  auctionIndex */\n      dup5\n        /* \"contracts/Auction.sol\":2320:2330  msg.sender */\n      caller\n        /* \"contracts/Auction.sol\":2332:2341  msg.value */\n      callvalue\n        /* \"contracts/Auction.sol\":2296:2342  BidPlaced(auctionIndex, msg.sender, msg.value) */\n      mload(0x40)\n      tag_107\n      swap4\n      swap3\n      swap2\n      swap1\n      tag_108\n      jump\t// in\n    tag_107:\n      mload(0x40)\n      dup1\n      swap2\n      sub\n      swap1\n      log1\n        /* \"contracts/Auction.sol\":1703:2350  {... */\n      pop\n        /* \"contracts/Auction.sol\":839:840  _ */\n      pop\n        /* \"contracts/Auction.sol\":1589:2350  function placeBid(uint256 auctionIndex) public payable onlyBeforeEnd(auctionIndex) onlyNotCancelled(auctionIndex) {... */\n      pop\n      pop\n      jump\t// out\n        /* \"contracts/Auction.sol\":2358:2849  function endAuction(uint256 auctionIndex) public onlyAuctioneer(auctionIndex) onlyBeforeEnd(auctionIndex) onlyNotCancelled(auctionIndex) {... */\n    tag_39:\n        /* \"contracts/Auction.sol\":2422:2434  auctionIndex */\n      dup1\n        /* \"contracts/Auction.sol\":1095:1103  auctions */\n      0x01\n        /* \"contracts/Auction.sol\":1104:1116  auctionIndex */\n      dup2\n        /* \"contracts/Auction.sol\":1095:1117  auctions[auctionIndex] */\n      dup2\n      sload\n      dup2\n      lt\n      tag_110\n      jumpi\n      tag_111\n      tag_57\n      jump\t// in\n    tag_111:\n    tag_110:\n      swap1\n      0x00\n      mstore\n      keccak256(0x00, 0x20)\n      swap1\n      0x05\n      mul\n      add\n        /* \"contracts/Auction.sol\":1095:1128  auctions[auctionIndex].auctioneer */\n      0x00\n      add\n      0x00\n      swap1\n      sload\n      swap1\n      0x0100\n      exp\n      swap1\n      div\n      0xffffffffffffffffffffffffffffffffffffffff\n      and\n        /* \"contracts/Auction.sol\":1081:1128  msg.sender == auctions[auctionIndex].auctioneer */\n      0xffffffffffffffffffffffffffffffffffffffff\n      and\n        /* \"contracts/Auction.sol\":1081:1091  msg.sender */\n      caller\n        /* \"contracts/Auction.sol\":1081:1128  msg.sender == auctions[auctionIndex].auctioneer */\n      0xffffffffffffffffffffffffffffffffffffffff\n      and\n      eq\n        /* \"contracts/Auction.sol\":1073:1177  require(msg.sender == auctions[auctionIndex].auctioneer, \"Only the auctioneer can perform this action.\") */\n      tag_113\n      jumpi\n      mload(0x40)\n      0x08c379a000000000000000000000000000000000000000000000000000000000\n      dup2\n      mstore\n      0x04\n      add\n      tag_114\n      swap1\n      tag_61\n      jump\t// in\n    tag_114:\n      mload(0x40)\n      dup1\n      swap2\n      sub\n      swap1\n      revert\n    tag_113:\n        /* \"contracts/Auction.sol\":2450:2462  auctionIndex */\n      dup2\n        /* \"contracts/Auction.sol\":769:777  auctions */\n      0x01\n        /* \"contracts/Auction.sol\":778:790  auctionIndex */\n      dup2\n        /* \"contracts/Auction.sol\":769:791  auctions[auctionIndex] */\n      dup2\n      sload\n      dup2\n      lt\n      tag_116\n      jumpi\n      tag_117\n      tag_57\n      jump\t// in\n    tag_117:\n    tag_116:\n      swap1\n      0x00\n      mstore\n      keccak256(0x00, 0x20)\n      swap1\n      0x05\n      mul\n      add\n        /* \"contracts/Auction.sol\":769:797  auctions[auctionIndex].ended */\n      0x04\n      add\n      0x14\n      swap1\n      sload\n      swap1\n      0x0100\n      exp\n      swap1\n      div\n      0xff\n      and\n        /* \"contracts/Auction.sol\":768:797  !auctions[auctionIndex].ended */\n      iszero\n        /* \"contracts/Auction.sol\":760:828  require(!auctions[auctionIndex].ended, \"Auction has already ended.\") */\n      tag_119\n      jumpi\n      mload(0x40)\n      0x08c379a000000000000000000000000000000000000000000000000000000000\n      dup2\n      mstore\n      0x04\n      add\n      tag_120\n      swap1\n      tag_68\n      jump\t// in\n    tag_120:\n      mload(0x40)\n      dup1\n      swap2\n      sub\n      swap1\n      revert\n    tag_119:\n        /* \"contracts/Auction.sol\":2481:2493  auctionIndex */\n      dup3\n        /* \"contracts/Auction.sol\":924:932  auctions */\n      0x01\n        /* \"contracts/Auction.sol\":933:945  auctionIndex */\n      dup2\n        /* \"contracts/Auction.sol\":924:946  auctions[auctionIndex] */\n      dup2\n      sload\n      dup2\n      lt\n      tag_122\n      jumpi\n      tag_123\n      tag_57\n      jump\t// in\n    tag_123:\n    tag_122:\n      swap1\n      0x00\n      mstore\n      keccak256(0x00, 0x20)\n      swap1\n      0x05\n      mul\n      add\n        /* \"contracts/Auction.sol\":924:956  auctions[auctionIndex].cancelled */\n      0x04\n      add\n      0x15\n      swap1\n      sload\n      swap1\n      0x0100\n      exp\n      swap1\n      div\n      0xff\n      and\n        /* \"contracts/Auction.sol\":923:956  !auctions[auctionIndex].cancelled */\n      iszero\n        /* \"contracts/Auction.sol\":915:988  require(!auctions[auctionIndex].cancelled, \"Auction has been cancelled.\") */\n      tag_125\n      jumpi\n      mload(0x40)\n      0x08c379a000000000000000000000000000000000000000000000000000000000\n      dup2\n      mstore\n      0x04\n      add\n      tag_126\n      swap1\n      tag_75\n      jump\t// in\n    tag_126:\n      mload(0x40)\n      dup1\n      swap2\n      sub\n      swap1\n      revert\n    tag_125:\n        /* \"contracts/Auction.sol\":2506:2533  AuctionItem storage auction */\n      0x00\n        /* \"contracts/Auction.sol\":2536:2544  auctions */\n      0x01\n        /* \"contracts/Auction.sol\":2545:2557  auctionIndex */\n      dup6\n        /* \"contracts/Auction.sol\":2536:2558  auctions[auctionIndex] */\n      dup2\n      sload\n      dup2\n      lt\n      tag_128\n      jumpi\n      tag_129\n      tag_57\n      jump\t// in\n    tag_129:\n    tag_128:\n      swap1\n      0x00\n      mstore\n      keccak256(0x00, 0x20)\n      swap1\n      0x05\n      mul\n      add\n        /* \"contracts/Auction.sol\":2506:2558  AuctionItem storage auction = auctions[auctionIndex] */\n      swap1\n      pop\n        /* \"contracts/Auction.sol\":2610:2611  0 */\n      0x00\n        /* \"contracts/Auction.sol\":2577:2612  auction.highestBidder != address(0) */\n      0xffffffffffffffffffffffffffffffffffffffff\n      and\n        /* \"contracts/Auction.sol\":2577:2584  auction */\n      dup2\n        /* \"contracts/Auction.sol\":2577:2598  auction.highestBidder */\n      0x04\n      add\n      0x00\n      swap1\n      sload\n      swap1\n      0x0100\n      exp\n      swap1\n      div\n      0xffffffffffffffffffffffffffffffffffffffff\n      and\n        /* \"contracts/Auction.sol\":2577:2612  auction.highestBidder != address(0) */\n      0xffffffffffffffffffffffffffffffffffffffff\n      and\n      sub\n        /* \"contracts/Auction.sol\":2569:2654  require(auction.highestBidder != address(0), \"Auction cannot be ended with no bids.\") */\n      tag_131\n      jumpi\n      mload(0x40)\n      0x08c379a000000000000000000000000000000000000000000000000000000000\n      dup2\n      mstore\n      0x04\n      add\n      tag_132\n      swap1\n      tag_133\n      jump\t// in\n    tag_132:\n      mload(0x40)\n      dup1\n      swap2\n      sub\n      swap1\n      revert\n    tag_131:\n        /* \"contracts/Auction.sol\":2675:2682  auction */\n      dup1\n        /* \"contracts/Auction.sol\":2675:2693  auction.auctioneer */\n      0x00\n      add\n      0x00\n      swap1\n      sload\n      swap1\n      0x0100\n      exp\n      swap1\n      div\n      0xffffffffffffffffffffffffffffffffffffffff\n      and\n        /* \"contracts/Auction.sol\":2667:2703  payable(auction.auctioneer).transfer */\n      0xffffffffffffffffffffffffffffffffffffffff\n      and\n        /* \"contracts/Auction.sol\":2667:2723  payable(auction.auctioneer).transfer(auction.highestBid) */\n      0x08fc\n        /* \"contracts/Auction.sol\":2704:2711  auction */\n      dup3\n        /* \"contracts/Auction.sol\":2704:2722  auction.highestBid */\n      0x03\n      add\n      sload\n        /* \"contracts/Auction.sol\":2667:2723  payable(auction.auctioneer).transfer(auction.highestBid) */\n      swap1\n      dup2\n      iszero\n      mul\n      swap1\n      mload(0x40)\n      0x00\n      mload(0x40)\n      dup1\n      dup4\n      sub\n      dup2\n      dup6\n      dup9\n      dup9\n      call\n      swap4\n      pop\n      pop\n      pop\n      pop\n      iszero\n      dup1\n      iszero\n      tag_135\n      jumpi\n      returndatasize\n      0x00\n      dup1\n      returndatacopy\n      revert(0x00, returndatasize)\n    tag_135:\n      pop\n        /* \"contracts/Auction.sol\":2752:2756  true */\n      0x01\n        /* \"contracts/Auction.sol\":2736:2743  auction */\n      dup2\n        /* \"contracts/Auction.sol\":2736:2749  auction.ended */\n      0x04\n      add\n      0x14\n        /* \"contracts/Auction.sol\":2736:2756  auction.ended = true */\n      0x0100\n      exp\n      dup2\n      sload\n      dup2\n      0xff\n      mul\n      not\n      and\n      swap1\n      dup4\n      iszero\n      iszero\n      mul\n      or\n      swap1\n      sstore\n      pop\n        /* \"contracts/Auction.sol\":2772:2841  AuctionEnded(auctionIndex, auction.highestBidder, auction.highestBid) */\n      0xd2aa34a4fdbbc6dff6a3e56f46e0f3ae2a31d7785ff3487aa5c95c642acea501\n        /* \"contracts/Auction.sol\":2785:2797  auctionIndex */\n      dup6\n        /* \"contracts/Auction.sol\":2799:2806  auction */\n      dup3\n        /* \"contracts/Auction.sol\":2799:2820  auction.highestBidder */\n      0x04\n      add\n      0x00\n      swap1\n      sload\n      swap1\n      0x0100\n      exp\n      swap1\n      div\n      0xffffffffffffffffffffffffffffffffffffffff\n      and\n        /* \"contracts/Auction.sol\":2822:2829  auction */\n      dup4\n        /* \"contracts/Auction.sol\":2822:2840  auction.highestBid */\n      0x03\n      add\n      sload\n        /* \"contracts/Auction.sol\":2772:2841  AuctionEnded(auctionIndex, auction.highestBidder, auction.highestBid) */\n      mload(0x40)\n      tag_136\n      swap4\n      swap3\n      swap2\n      swap1\n      tag_108\n      jump\t// in\n    tag_136:\n      mload(0x40)\n      dup1\n      swap2\n      sub\n      swap1\n      log1\n        /* \"contracts/Auction.sol\":2495:2849  {... */\n      pop\n        /* \"contracts/Auction.sol\":839:840  _ */\n      pop\n        /* \"contracts/Auction.sol\":1188:1189  _ */\n      pop\n        /* \"contracts/Auction.sol\":2358:2849  function endAuction(uint256 auctionIndex) public onlyAuctioneer(auctionIndex) onlyBeforeEnd(auctionIndex) onlyNotCancelled(auctionIndex) {... */\n      pop\n      pop\n      jump\t// out\n        /* \"contracts/Auction.sol\":3157:3768  function getAuctionDetails(uint256 auctionIndex) public view returns (... */\n    tag_43:\n        /* \"contracts/Auction.sol\":3237:3255  address auctioneer */\n      0x00\n        /* \"contracts/Auction.sol\":3266:3288  uint256 auctionEndTime */\n      dup1\n        /* \"contracts/Auction.sol\":3299:3319  uint256 reservePrice */\n      0x00\n        /* \"contracts/Auction.sol\":3330:3348  uint256 highestBid */\n      dup1\n        /* \"contracts/Auction.sol\":3359:3380  address highestBidder */\n      0x00\n        /* \"contracts/Auction.sol\":3391:3401  bool ended */\n      dup1\n        /* \"contracts/Auction.sol\":3412:3426  bool cancelled */\n      0x00\n        /* \"contracts/Auction.sol\":3445:3472  AuctionItem storage auction */\n      dup1\n        /* \"contracts/Auction.sol\":3475:3483  auctions */\n      0x01\n        /* \"contracts/Auction.sol\":3484:3496  auctionIndex */\n      dup10\n        /* \"contracts/Auction.sol\":3475:3497  auctions[auctionIndex] */\n      dup2\n      sload\n      dup2\n      lt\n      tag_138\n      jumpi\n      tag_139\n      tag_57\n      jump\t// in\n    tag_139:\n    tag_138:\n      swap1\n      0x00\n      mstore\n      keccak256(0x00, 0x20)\n      swap1\n      0x05\n      mul\n      add\n        /* \"contracts/Auction.sol\":3445:3497  AuctionItem storage auction = auctions[auctionIndex] */\n      swap1\n      pop\n        /* \"contracts/Auction.sol\":3530:3537  auction */\n      dup1\n        /* \"contracts/Auction.sol\":3530:3548  auction.auctioneer */\n      0x00\n      add\n      0x00\n      swap1\n      sload\n      swap1\n      0x0100\n      exp\n      swap1\n      div\n      0xffffffffffffffffffffffffffffffffffffffff\n      and\n        /* \"contracts/Auction.sol\":3563:3570  auction */\n      dup2\n        /* \"contracts/Auction.sol\":3563:3585  auction.auctionEndTime */\n      0x01\n      add\n      sload\n        /* \"contracts/Auction.sol\":3600:3607  auction */\n      dup3\n        /* \"contracts/Auction.sol\":3600:3620  auction.reservePrice */\n      0x02\n      add\n      sload\n        /* \"contracts/Auction.sol\":3635:3642  auction */\n      dup4\n        /* \"contracts/Auction.sol\":3635:3653  auction.highestBid */\n      0x03\n      add\n      sload\n        /* \"contracts/Auction.sol\":3668:3675  auction */\n      dup5\n        /* \"contracts/Auction.sol\":3668:3689  auction.highestBidder */\n      0x04\n      add\n      0x00\n      swap1\n      sload\n      swap1\n      0x0100\n      exp\n      swap1\n      div\n      0xffffffffffffffffffffffffffffffffffffffff\n      and\n        /* \"contracts/Auction.sol\":3704:3711  auction */\n      dup6\n        /* \"contracts/Auction.sol\":3704:3717  auction.ended */\n      0x04\n      add\n      0x14\n      swap1\n      sload\n      swap1\n      0x0100\n      exp\n      swap1\n      div\n      0xff\n      and\n        /* \"contracts/Auction.sol\":3732:3739  auction */\n      dup7\n        /* \"contracts/Auction.sol\":3732:3749  auction.cancelled */\n      0x04\n      add\n      0x15\n      swap1\n      sload\n      swap1\n      0x0100\n      exp\n      swap1\n      div\n      0xff\n      and\n        /* \"contracts/Auction.sol\":3508:3760  return (... */\n      swap8\n      pop\n      swap8\n      pop\n      swap8\n      pop\n      swap8\n      pop\n      swap8\n      pop\n      swap8\n      pop\n      swap8\n      pop\n      pop\n        /* \"contracts/Auction.sol\":3157:3768  function getAuctionDetails(uint256 auctionIndex) public view returns (... */\n      swap2\n      swap4\n      swap6\n      swap8\n      swap1\n      swap3\n      swap5\n      swap7\n      pop\n      jump\t// out\n        /* \"#utility.yul\":88:205   */\n    tag_142:\n        /* \"#utility.yul\":197:198   */\n      0x00\n        /* \"#utility.yul\":194:195   */\n      dup1\n        /* \"#utility.yul\":187:199   */\n      revert\n        /* \"#utility.yul\":334:411   */\n    tag_144:\n        /* \"#utility.yul\":371:378   */\n      0x00\n        /* \"#utility.yul\":400:405   */\n      dup2\n        /* \"#utility.yul\":389:405   */\n      swap1\n      pop\n        /* \"#utility.yul\":334:411   */\n      swap2\n      swap1\n      pop\n      jump\t// out\n        /* \"#utility.yul\":417:539   */\n    tag_145:\n        /* \"#utility.yul\":490:514   */\n      tag_177\n        /* \"#utility.yul\":508:513   */\n      dup2\n        /* \"#utility.yul\":490:514   */\n      tag_144\n      jump\t// in\n    tag_177:\n        /* \"#utility.yul\":483:488   */\n      dup2\n        /* \"#utility.yul\":480:515   */\n      eq\n        /* \"#utility.yul\":470:533   */\n      tag_178\n      jumpi\n        /* \"#utility.yul\":529:530   */\n      0x00\n        /* \"#utility.yul\":526:527   */\n      dup1\n        /* \"#utility.yul\":519:531   */\n      revert\n        /* \"#utility.yul\":470:533   */\n    tag_178:\n        /* \"#utility.yul\":417:539   */\n      pop\n      jump\t// out\n        /* \"#utility.yul\":545:684   */\n    tag_146:\n        /* \"#utility.yul\":591:596   */\n      0x00\n        /* \"#utility.yul\":629:635   */\n      dup2\n        /* \"#utility.yul\":616:636   */\n      calldataload\n        /* \"#utility.yul\":607:636   */\n      swap1\n      pop\n        /* \"#utility.yul\":645:678   */\n      tag_180\n        /* \"#utility.yul\":672:677   */\n      dup2\n        /* \"#utility.yul\":645:678   */\n      tag_145\n      jump\t// in\n    tag_180:\n        /* \"#utility.yul\":545:684   */\n      swap3\n      swap2\n      pop\n      pop\n      jump\t// out\n        /* \"#utility.yul\":690:1164   */\n    tag_13:\n        /* \"#utility.yul\":758:764   */\n      0x00\n        /* \"#utility.yul\":766:772   */\n      dup1\n        /* \"#utility.yul\":815:817   */\n      0x40\n        /* \"#utility.yul\":803:812   */\n      dup4\n        /* \"#utility.yul\":794:801   */\n      dup6\n        /* \"#utility.yul\":790:813   */\n      sub\n        /* \"#utility.yul\":786:818   */\n      slt\n        /* \"#utility.yul\":783:902   */\n      iszero\n      tag_182\n      jumpi\n        /* \"#utility.yul\":821:900   */\n      tag_183\n      tag_142\n      jump\t// in\n    tag_183:\n        /* \"#utility.yul\":783:902   */\n    tag_182:\n        /* \"#utility.yul\":941:942   */\n      0x00\n        /* \"#utility.yul\":966:1019   */\n      tag_184\n        /* \"#utility.yul\":1011:1018   */\n      dup6\n        /* \"#utility.yul\":1002:1008   */\n      dup3\n        /* \"#utility.yul\":991:1000   */\n      dup7\n        /* \"#utility.yul\":987:1009   */\n      add\n        /* \"#utility.yul\":966:1019   */\n      tag_146\n      jump\t// in\n    tag_184:\n        /* \"#utility.yul\":956:1019   */\n      swap3\n      pop\n        /* \"#utility.yul\":912:1029   */\n      pop\n        /* \"#utility.yul\":1068:1070   */\n      0x20\n        /* \"#utility.yul\":1094:1147   */\n      tag_185\n        /* \"#utility.yul\":1139:1146   */\n      dup6\n        /* \"#utility.yul\":1130:1136   */\n      dup3\n        /* \"#utility.yul\":1119:1128   */\n      dup7\n        /* \"#utility.yul\":1115:1137   */\n      add\n        /* \"#utility.yul\":1094:1147   */\n      tag_146\n      jump\t// in\n    tag_185:\n        /* \"#utility.yul\":1084:1147   */\n      swap2\n      pop\n        /* \"#utility.yul\":1039:1157   */\n      pop\n        /* \"#utility.yul\":690:1164   */\n      swap3\n      pop\n      swap3\n      swap1\n      pop\n      jump\t// out\n        /* \"#utility.yul\":1170:1296   */\n    tag_147:\n        /* \"#utility.yul\":1207:1214   */\n      0x00\n        /* \"#utility.yul\":1247:1289   */\n      0xffffffffffffffffffffffffffffffffffffffff\n        /* \"#utility.yul\":1240:1245   */\n      dup3\n        /* \"#utility.yul\":1236:1290   */\n      and\n        /* \"#utility.yul\":1225:1290   */\n      swap1\n      pop\n        /* \"#utility.yul\":1170:1296   */\n      swap2\n      swap1\n      pop\n      jump\t// out\n        /* \"#utility.yul\":1302:1398   */\n    tag_148:\n        /* \"#utility.yul\":1339:1346   */\n      0x00\n        /* \"#utility.yul\":1368:1392   */\n      tag_188\n        /* \"#utility.yul\":1386:1391   */\n      dup3\n        /* \"#utility.yul\":1368:1392   */\n      tag_147\n      jump\t// in\n    tag_188:\n        /* \"#utility.yul\":1357:1392   */\n      swap1\n      pop\n        /* \"#utility.yul\":1302:1398   */\n      swap2\n      swap1\n      pop\n      jump\t// out\n        /* \"#utility.yul\":1404:1526   */\n    tag_149:\n        /* \"#utility.yul\":1477:1501   */\n      tag_190\n        /* \"#utility.yul\":1495:1500   */\n      dup2\n        /* \"#utility.yul\":1477:1501   */\n      tag_148\n      jump\t// in\n    tag_190:\n        /* \"#utility.yul\":1470:1475   */\n      dup2\n        /* \"#utility.yul\":1467:1502   */\n      eq\n        /* \"#utility.yul\":1457:1520   */\n      tag_191\n      jumpi\n        /* \"#utility.yul\":1516:1517   */\n      0x00\n        /* \"#utility.yul\":1513:1514   */\n      dup1\n        /* \"#utility.yul\":1506:1518   */\n      revert\n        /* \"#utility.yul\":1457:1520   */\n    tag_191:\n        /* \"#utility.yul\":1404:1526   */\n      pop\n      jump\t// out\n        /* \"#utility.yul\":1532:1671   */\n    tag_150:\n        /* \"#utility.yul\":1578:1583   */\n      0x00\n        /* \"#utility.yul\":1616:1622   */\n      dup2\n        /* \"#utility.yul\":1603:1623   */\n      calldataload\n        /* \"#utility.yul\":1594:1623   */\n      swap1\n      pop\n        /* \"#utility.yul\":1632:1665   */\n      tag_193\n        /* \"#utility.yul\":1659:1664   */\n      dup2\n        /* \"#utility.yul\":1632:1665   */\n      tag_149\n      jump\t// in\n    tag_193:\n        /* \"#utility.yul\":1532:1671   */\n      swap3\n      swap2\n      pop\n      pop\n      jump\t// out\n        /* \"#utility.yul\":1677:2151   */\n    tag_18:\n        /* \"#utility.yul\":1745:1751   */\n      0x00\n        /* \"#utility.yul\":1753:1759   */\n      dup1\n        /* \"#utility.yul\":1802:1804   */\n      0x40\n        /* \"#utility.yul\":1790:1799   */\n      dup4\n        /* \"#utility.yul\":1781:1788   */\n      dup6\n        /* \"#utility.yul\":1777:1800   */\n      sub\n        /* \"#utility.yul\":1773:1805   */\n      slt\n        /* \"#utility.yul\":1770:1889   */\n      iszero\n      tag_195\n      jumpi\n        /* \"#utility.yul\":1808:1887   */\n      tag_196\n      tag_142\n      jump\t// in\n    tag_196:\n        /* \"#utility.yul\":1770:1889   */\n    tag_195:\n        /* \"#utility.yul\":1928:1929   */\n      0x00\n        /* \"#utility.yul\":1953:2006   */\n      tag_197\n        /* \"#utility.yul\":1998:2005   */\n      dup6\n        /* \"#utility.yul\":1989:1995   */\n      dup3\n        /* \"#utility.yul\":1978:1987   */\n      dup7\n        /* \"#utility.yul\":1974:1996   */\n      add\n        /* \"#utility.yul\":1953:2006   */\n      tag_146\n      jump\t// in\n    tag_197:\n        /* \"#utility.yul\":1943:2006   */\n      swap3\n      pop\n        /* \"#utility.yul\":1899:2016   */\n      pop\n        /* \"#utility.yul\":2055:2057   */\n      0x20\n        /* \"#utility.yul\":2081:2134   */\n      tag_198\n        /* \"#utility.yul\":2126:2133   */\n      dup6\n        /* \"#utility.yul\":2117:2123   */\n      dup3\n        /* \"#utility.yul\":2106:2115   */\n      dup7\n        /* \"#utility.yul\":2102:2124   */\n      add\n        /* \"#utility.yul\":2081:2134   */\n      tag_150\n      jump\t// in\n    tag_198:\n        /* \"#utility.yul\":2071:2134   */\n      swap2\n      pop\n        /* \"#utility.yul\":2026:2144   */\n      pop\n        /* \"#utility.yul\":1677:2151   */\n      swap3\n      pop\n      swap3\n      swap1\n      pop\n      jump\t// out\n        /* \"#utility.yul\":2157:2275   */\n    tag_151:\n        /* \"#utility.yul\":2244:2268   */\n      tag_200\n        /* \"#utility.yul\":2262:2267   */\n      dup2\n        /* \"#utility.yul\":2244:2268   */\n      tag_148\n      jump\t// in\n    tag_200:\n        /* \"#utility.yul\":2239:2242   */\n      dup3\n        /* \"#utility.yul\":2232:2269   */\n      mstore\n        /* \"#utility.yul\":2157:2275   */\n      pop\n      pop\n      jump\t// out\n        /* \"#utility.yul\":2281:2399   */\n    tag_152:\n        /* \"#utility.yul\":2368:2392   */\n      tag_202\n        /* \"#utility.yul\":2386:2391   */\n      dup2\n        /* \"#utility.yul\":2368:2392   */\n      tag_144\n      jump\t// in\n    tag_202:\n        /* \"#utility.yul\":2363:2366   */\n      dup3\n        /* \"#utility.yul\":2356:2393   */\n      mstore\n        /* \"#utility.yul\":2281:2399   */\n      pop\n      pop\n      jump\t// out\n        /* \"#utility.yul\":2405:2737   */\n    tag_21:\n        /* \"#utility.yul\":2526:2530   */\n      0x00\n        /* \"#utility.yul\":2564:2566   */\n      0x40\n        /* \"#utility.yul\":2553:2562   */\n      dup3\n        /* \"#utility.yul\":2549:2567   */\n      add\n        /* \"#utility.yul\":2541:2567   */\n      swap1\n      pop\n        /* \"#utility.yul\":2577:2648   */\n      tag_204\n        /* \"#utility.yul\":2645:2646   */\n      0x00\n        /* \"#utility.yul\":2634:2643   */\n      dup4\n        /* \"#utility.yul\":2630:2647   */\n      add\n        /* \"#utility.yul\":2621:2627   */\n      dup6\n        /* \"#utility.yul\":2577:2648   */\n      tag_151\n      jump\t// in\n    tag_204:\n        /* \"#utility.yul\":2658:2730   */\n      tag_205\n        /* \"#utility.yul\":2726:2728   */\n      0x20\n        /* \"#utility.yul\":2715:2724   */\n      dup4\n        /* \"#utility.yul\":2711:2729   */\n      add\n        /* \"#utility.yul\":2702:2708   */\n      dup5\n        /* \"#utility.yul\":2658:2730   */\n      tag_152\n      jump\t// in\n    tag_205:\n        /* \"#utility.yul\":2405:2737   */\n      swap4\n      swap3\n      pop\n      pop\n      pop\n      jump\t// out\n        /* \"#utility.yul\":2743:3072   */\n    tag_25:\n        /* \"#utility.yul\":2802:2808   */\n      0x00\n        /* \"#utility.yul\":2851:2853   */\n      0x20\n        /* \"#utility.yul\":2839:2848   */\n      dup3\n        /* \"#utility.yul\":2830:2837   */\n      dup5\n        /* \"#utility.yul\":2826:2849   */\n      sub\n        /* \"#utility.yul\":2822:2854   */\n      slt\n        /* \"#utility.yul\":2819:2938   */\n      iszero\n      tag_207\n      jumpi\n        /* \"#utility.yul\":2857:2936   */\n      tag_208\n      tag_142\n      jump\t// in\n    tag_208:\n        /* \"#utility.yul\":2819:2938   */\n    tag_207:\n        /* \"#utility.yul\":2977:2978   */\n      0x00\n        /* \"#utility.yul\":3002:3055   */\n      tag_209\n        /* \"#utility.yul\":3047:3054   */\n      dup5\n        /* \"#utility.yul\":3038:3044   */\n      dup3\n        /* \"#utility.yul\":3027:3036   */\n      dup6\n        /* \"#utility.yul\":3023:3045   */\n      add\n        /* \"#utility.yul\":3002:3055   */\n      tag_146\n      jump\t// in\n    tag_209:\n        /* \"#utility.yul\":2992:3055   */\n      swap2\n      pop\n        /* \"#utility.yul\":2948:3065   */\n      pop\n        /* \"#utility.yul\":2743:3072   */\n      swap3\n      swap2\n      pop\n      pop\n      jump\t// out\n        /* \"#utility.yul\":3078:3168   */\n    tag_153:\n        /* \"#utility.yul\":3112:3119   */\n      0x00\n        /* \"#utility.yul\":3155:3160   */\n      dup2\n        /* \"#utility.yul\":3148:3161   */\n      iszero\n        /* \"#utility.yul\":3141:3162   */\n      iszero\n        /* \"#utility.yul\":3130:3162   */\n      swap1\n      pop\n        /* \"#utility.yul\":3078:3168   */\n      swap2\n      swap1\n      pop\n      jump\t// out\n        /* \"#utility.yul\":3174:3283   */\n    tag_154:\n        /* \"#utility.yul\":3255:3276   */\n      tag_212\n        /* \"#utility.yul\":3270:3275   */\n      dup2\n        /* \"#utility.yul\":3255:3276   */\n      tag_153\n      jump\t// in\n    tag_212:\n        /* \"#utility.yul\":3250:3253   */\n      dup3\n        /* \"#utility.yul\":3243:3277   */\n      mstore\n        /* \"#utility.yul\":3174:3283   */\n      pop\n      pop\n      jump\t// out\n        /* \"#utility.yul\":3289:4151   */\n    tag_28:\n        /* \"#utility.yul\":3538:3542   */\n      0x00\n        /* \"#utility.yul\":3576:3579   */\n      0xe0\n        /* \"#utility.yul\":3565:3574   */\n      dup3\n        /* \"#utility.yul\":3561:3580   */\n      add\n        /* \"#utility.yul\":3553:3580   */\n      swap1\n      pop\n        /* \"#utility.yul\":3590:3661   */\n      tag_214\n        /* \"#utility.yul\":3658:3659   */\n      0x00\n        /* \"#utility.yul\":3647:3656   */\n      dup4\n        /* \"#utility.yul\":3643:3660   */\n      add\n        /* \"#utility.yul\":3634:3640   */\n      dup11\n        /* \"#utility.yul\":3590:3661   */\n      tag_151\n      jump\t// in\n    tag_214:\n        /* \"#utility.yul\":3671:3743   */\n      tag_215\n        /* \"#utility.yul\":3739:3741   */\n      0x20\n        /* \"#utility.yul\":3728:3737   */\n      dup4\n        /* \"#utility.yul\":3724:3742   */\n      add\n        /* \"#utility.yul\":3715:3721   */\n      dup10\n        /* \"#utility.yul\":3671:3743   */\n      tag_152\n      jump\t// in\n    tag_215:\n        /* \"#utility.yul\":3753:3825   */\n      tag_216\n        /* \"#utility.yul\":3821:3823   */\n      0x40\n        /* \"#utility.yul\":3810:3819   */\n      dup4\n        /* \"#utility.yul\":3806:3824   */\n      add\n        /* \"#utility.yul\":3797:3803   */\n      dup9\n        /* \"#utility.yul\":3753:3825   */\n      tag_152\n      jump\t// in\n    tag_216:\n        /* \"#utility.yul\":3835:3907   */\n      tag_217\n        /* \"#utility.yul\":3903:3905   */\n      0x60\n        /* \"#utility.yul\":3892:3901   */\n      dup4\n        /* \"#utility.yul\":3888:3906   */\n      add\n        /* \"#utility.yul\":3879:3885   */\n      dup8\n        /* \"#utility.yul\":3835:3907   */\n      tag_152\n      jump\t// in\n    tag_217:\n        /* \"#utility.yul\":3917:3990   */\n      tag_218\n        /* \"#utility.yul\":3985:3988   */\n      0x80\n        /* \"#utility.yul\":3974:3983   */\n      dup4\n        /* \"#utility.yul\":3970:3989   */\n      add\n        /* \"#utility.yul\":3961:3967   */\n      dup7\n        /* \"#utility.yul\":3917:3990   */\n      tag_151\n      jump\t// in\n    tag_218:\n        /* \"#utility.yul\":4000:4067   */\n      tag_219\n        /* \"#utility.yul\":4062:4065   */\n      0xa0\n        /* \"#utility.yul\":4051:4060   */\n      dup4\n        /* \"#utility.yul\":4047:4066   */\n      add\n        /* \"#utility.yul\":4038:4044   */\n      dup6\n        /* \"#utility.yul\":4000:4067   */\n      tag_154\n      jump\t// in\n    tag_219:\n        /* \"#utility.yul\":4077:4144   */\n      tag_220\n        /* \"#utility.yul\":4139:4142   */\n      0xc0\n        /* \"#utility.yul\":4128:4137   */\n      dup4\n        /* \"#utility.yul\":4124:4143   */\n      add\n        /* \"#utility.yul\":4115:4121   */\n      dup5\n        /* \"#utility.yul\":4077:4144   */\n      tag_154\n      jump\t// in\n    tag_220:\n        /* \"#utility.yul\":3289:4151   */\n      swap9\n      swap8\n      pop\n      pop\n      pop\n      pop\n      pop\n      pop\n      pop\n      pop\n      jump\t// out\n        /* \"#utility.yul\":4157:4326   */\n    tag_155:\n        /* \"#utility.yul\":4241:4252   */\n      0x00\n        /* \"#utility.yul\":4275:4281   */\n      dup3\n        /* \"#utility.yul\":4270:4273   */\n      dup3\n        /* \"#utility.yul\":4263:4282   */\n      mstore\n        /* \"#utility.yul\":4315:4319   */\n      0x20\n        /* \"#utility.yul\":4310:4313   */\n      dup3\n        /* \"#utility.yul\":4306:4320   */\n      add\n        /* \"#utility.yul\":4291:4320   */\n      swap1\n      pop\n        /* \"#utility.yul\":4157:4326   */\n      swap3\n      swap2\n      pop\n      pop\n      jump\t// out\n        /* \"#utility.yul\":4332:4562   */\n    tag_156:\n        /* \"#utility.yul\":4472:4506   */\n      0x41756374696f6e206475726174696f6e206d7573742062652067726561746572\n        /* \"#utility.yul\":4468:4469   */\n      0x00\n        /* \"#utility.yul\":4460:4466   */\n      dup3\n        /* \"#utility.yul\":4456:4470   */\n      add\n        /* \"#utility.yul\":4449:4507   */\n      mstore\n        /* \"#utility.yul\":4541:4554   */\n      0x207468616e207a65726f2e000000000000000000000000000000000000000000\n        /* \"#utility.yul\":4536:4538   */\n      0x20\n        /* \"#utility.yul\":4528:4534   */\n      dup3\n        /* \"#utility.yul\":4524:4539   */\n      add\n        /* \"#utility.yul\":4517:4555   */\n      mstore\n        /* \"#utility.yul\":4332:4562   */\n      pop\n      jump\t// out\n        /* \"#utility.yul\":4568:4934   */\n    tag_157:\n        /* \"#utility.yul\":4710:4713   */\n      0x00\n        /* \"#utility.yul\":4731:4798   */\n      tag_224\n        /* \"#utility.yul\":4795:4797   */\n      0x2b\n        /* \"#utility.yul\":4790:4793   */\n      dup4\n        /* \"#utility.yul\":4731:4798   */\n      tag_155\n      jump\t// in\n    tag_224:\n        /* \"#utility.yul\":4724:4798   */\n      swap2\n      pop\n        /* \"#utility.yul\":4807:4900   */\n      tag_225\n        /* \"#utility.yul\":4896:4899   */\n      dup3\n        /* \"#utility.yul\":4807:4900   */\n      tag_156\n      jump\t// in\n    tag_225:\n        /* \"#utility.yul\":4925:4927   */\n      0x40\n        /* \"#utility.yul\":4920:4923   */\n      dup3\n        /* \"#utility.yul\":4916:4928   */\n      add\n        /* \"#utility.yul\":4909:4928   */\n      swap1\n      pop\n        /* \"#utility.yul\":4568:4934   */\n      swap2\n      swap1\n      pop\n      jump\t// out\n        /* \"#utility.yul\":4940:5359   */\n    tag_48:\n        /* \"#utility.yul\":5106:5110   */\n      0x00\n        /* \"#utility.yul\":5144:5146   */\n      0x20\n        /* \"#utility.yul\":5133:5142   */\n      dup3\n        /* \"#utility.yul\":5129:5147   */\n      add\n        /* \"#utility.yul\":5121:5147   */\n      swap1\n      pop\n        /* \"#utility.yul\":5193:5202   */\n      dup2\n        /* \"#utility.yul\":5187:5191   */\n      dup2\n        /* \"#utility.yul\":5183:5203   */\n      sub\n        /* \"#utility.yul\":5179:5180   */\n      0x00\n        /* \"#utility.yul\":5168:5177   */\n      dup4\n        /* \"#utility.yul\":5164:5181   */\n      add\n        /* \"#utility.yul\":5157:5204   */\n      mstore\n        /* \"#utility.yul\":5221:5352   */\n      tag_227\n        /* \"#utility.yul\":5347:5351   */\n      dup2\n        /* \"#utility.yul\":5221:5352   */\n      tag_157\n      jump\t// in\n    tag_227:\n        /* \"#utility.yul\":5213:5352   */\n      swap1\n      pop\n        /* \"#utility.yul\":4940:5359   */\n      swap2\n      swap1\n      pop\n      jump\t// out\n        /* \"#utility.yul\":5365:5545   */\n    tag_158:\n        /* \"#utility.yul\":5413:5490   */\n      0x4e487b7100000000000000000000000000000000000000000000000000000000\n        /* \"#utility.yul\":5410:5411   */\n      0x00\n        /* \"#utility.yul\":5403:5491   */\n      mstore\n        /* \"#utility.yul\":5510:5514   */\n      0x11\n        /* \"#utility.yul\":5507:5508   */\n      0x04\n        /* \"#utility.yul\":5500:5515   */\n      mstore\n        /* \"#utility.yul\":5534:5538   */\n      0x24\n        /* \"#utility.yul\":5531:5532   */\n      0x00\n        /* \"#utility.yul\":5524:5539   */\n      revert\n        /* \"#utility.yul\":5551:5742   */\n    tag_50:\n        /* \"#utility.yul\":5591:5594   */\n      0x00\n        /* \"#utility.yul\":5610:5630   */\n      tag_230\n        /* \"#utility.yul\":5628:5629   */\n      dup3\n        /* \"#utility.yul\":5610:5630   */\n      tag_144\n      jump\t// in\n    tag_230:\n        /* \"#utility.yul\":5605:5630   */\n      swap2\n      pop\n        /* \"#utility.yul\":5644:5664   */\n      tag_231\n        /* \"#utility.yul\":5662:5663   */\n      dup4\n        /* \"#utility.yul\":5644:5664   */\n      tag_144\n      jump\t// in\n    tag_231:\n        /* \"#utility.yul\":5639:5664   */\n      swap3\n      pop\n        /* \"#utility.yul\":5687:5688   */\n      dup3\n        /* \"#utility.yul\":5684:5685   */\n      dup3\n        /* \"#utility.yul\":5680:5689   */\n      add\n        /* \"#utility.yul\":5673:5689   */\n      swap1\n      pop\n        /* \"#utility.yul\":5708:5711   */\n      dup1\n        /* \"#utility.yul\":5705:5706   */\n      dup3\n        /* \"#utility.yul\":5702:5712   */\n      gt\n        /* \"#utility.yul\":5699:5735   */\n      iszero\n      tag_232\n      jumpi\n        /* \"#utility.yul\":5715:5733   */\n      tag_233\n      tag_158\n      jump\t// in\n    tag_233:\n        /* \"#utility.yul\":5699:5735   */\n    tag_232:\n        /* \"#utility.yul\":5551:5742   */\n      swap3\n      swap2\n      pop\n      pop\n      jump\t// out\n        /* \"#utility.yul\":5748:5928   */\n    tag_57:\n        /* \"#utility.yul\":5796:5873   */\n      0x4e487b7100000000000000000000000000000000000000000000000000000000\n        /* \"#utility.yul\":5793:5794   */\n      0x00\n        /* \"#utility.yul\":5786:5874   */\n      mstore\n        /* \"#utility.yul\":5893:5897   */\n      0x32\n        /* \"#utility.yul\":5890:5891   */\n      0x04\n        /* \"#utility.yul\":5883:5898   */\n      mstore\n        /* \"#utility.yul\":5917:5921   */\n      0x24\n        /* \"#utility.yul\":5914:5915   */\n      0x00\n        /* \"#utility.yul\":5907:5922   */\n      revert\n        /* \"#utility.yul\":5934:6165   */\n    tag_159:\n        /* \"#utility.yul\":6074:6108   */\n      0x4f6e6c79207468652061756374696f6e6565722063616e20706572666f726d20\n        /* \"#utility.yul\":6070:6071   */\n      0x00\n        /* \"#utility.yul\":6062:6068   */\n      dup3\n        /* \"#utility.yul\":6058:6072   */\n      add\n        /* \"#utility.yul\":6051:6109   */\n      mstore\n        /* \"#utility.yul\":6143:6157   */\n      0x7468697320616374696f6e2e0000000000000000000000000000000000000000\n        /* \"#utility.yul\":6138:6140   */\n      0x20\n        /* \"#utility.yul\":6130:6136   */\n      dup3\n        /* \"#utility.yul\":6126:6141   */\n      add\n        /* \"#utility.yul\":6119:6158   */\n      mstore\n        /* \"#utility.yul\":5934:6165   */\n      pop\n      jump\t// out\n        /* \"#utility.yul\":6171:6537   */\n    tag_160:\n        /* \"#utility.yul\":6313:6316   */\n      0x00\n        /* \"#utility.yul\":6334:6401   */\n      tag_237\n        /* \"#utility.yul\":6398:6400   */\n      0x2c\n        /* \"#utility.yul\":6393:6396   */\n      dup4\n        /* \"#utility.yul\":6334:6401   */\n      tag_155\n      jump\t// in\n    tag_237:\n        /* \"#utility.yul\":6327:6401   */\n      swap2\n      pop\n        /* \"#utility.yul\":6410:6503   */\n      tag_238\n        /* \"#utility.yul\":6499:6502   */\n      dup3\n        /* \"#utility.yul\":6410:6503   */\n      tag_159\n      jump\t// in\n    tag_238:\n        /* \"#utility.yul\":6528:6530   */\n      0x40\n        /* \"#utility.yul\":6523:6526   */\n      dup3\n        /* \"#utility.yul\":6519:6531   */\n      add\n        /* \"#utility.yul\":6512:6531   */\n      swap1\n      pop\n        /* \"#utility.yul\":6171:6537   */\n      swap2\n      swap1\n      pop\n      jump\t// out\n        /* \"#utility.yul\":6543:6962   */\n    tag_61:\n        /* \"#utility.yul\":6709:6713   */\n      0x00\n        /* \"#utility.yul\":6747:6749   */\n      0x20\n        /* \"#utility.yul\":6736:6745   */\n      dup3\n        /* \"#utility.yul\":6732:6750   */\n      add\n        /* \"#utility.yul\":6724:6750   */\n      swap1\n      pop\n        /* \"#utility.yul\":6796:6805   */\n      dup2\n        /* \"#utility.yul\":6790:6794   */\n      dup2\n        /* \"#utility.yul\":6786:6806   */\n      sub\n        /* \"#utility.yul\":6782:6783   */\n      0x00\n        /* \"#utility.yul\":6771:6780   */\n      dup4\n        /* \"#utility.yul\":6767:6784   */\n      add\n        /* \"#utility.yul\":6760:6807   */\n      mstore\n        /* \"#utility.yul\":6824:6955   */\n      tag_240\n        /* \"#utility.yul\":6950:6954   */\n      dup2\n        /* \"#utility.yul\":6824:6955   */\n      tag_160\n      jump\t// in\n    tag_240:\n        /* \"#utility.yul\":6816:6955   */\n      swap1\n      pop\n        /* \"#utility.yul\":6543:6962   */\n      swap2\n      swap1\n      pop\n      jump\t// out\n        /* \"#utility.yul\":6968:7144   */\n    tag_161:\n        /* \"#utility.yul\":7108:7136   */\n      0x41756374696f6e2068617320616c726561647920656e6465642e000000000000\n        /* \"#utility.yul\":7104:7105   */\n      0x00\n        /* \"#utility.yul\":7096:7102   */\n      dup3\n        /* \"#utility.yul\":7092:7106   */\n      add\n        /* \"#utility.yul\":7085:7137   */\n      mstore\n        /* \"#utility.yul\":6968:7144   */\n      pop\n      jump\t// out\n        /* \"#utility.yul\":7150:7516   */\n    tag_162:\n        /* \"#utility.yul\":7292:7295   */\n      0x00\n        /* \"#utility.yul\":7313:7380   */\n      tag_243\n        /* \"#utility.yul\":7377:7379   */\n      0x1a\n        /* \"#utility.yul\":7372:7375   */\n      dup4\n        /* \"#utility.yul\":7313:7380   */\n      tag_155\n      jump\t// in\n    tag_243:\n        /* \"#utility.yul\":7306:7380   */\n      swap2\n      pop\n        /* \"#utility.yul\":7389:7482   */\n      tag_244\n        /* \"#utility.yul\":7478:7481   */\n      dup3\n        /* \"#utility.yul\":7389:7482   */\n      tag_161\n      jump\t// in\n    tag_244:\n        /* \"#utility.yul\":7507:7509   */\n      0x20\n        /* \"#utility.yul\":7502:7505   */\n      dup3\n        /* \"#utility.yul\":7498:7510   */\n      add\n        /* \"#utility.yul\":7491:7510   */\n      swap1\n      pop\n        /* \"#utility.yul\":7150:7516   */\n      swap2\n      swap1\n      pop\n      jump\t// out\n        /* \"#utility.yul\":7522:7941   */\n    tag_68:\n        /* \"#utility.yul\":7688:7692   */\n      0x00\n        /* \"#utility.yul\":7726:7728   */\n      0x20\n        /* \"#utility.yul\":7715:7724   */\n      dup3\n        /* \"#utility.yul\":7711:7729   */\n      add\n        /* \"#utility.yul\":7703:7729   */\n      swap1\n      pop\n        /* \"#utility.yul\":7775:7784   */\n      dup2\n        /* \"#utility.yul\":7769:7773   */\n      dup2\n        /* \"#utility.yul\":7765:7785   */\n      sub\n        /* \"#utility.yul\":7761:7762   */\n      0x00\n        /* \"#utility.yul\":7750:7759   */\n      dup4\n        /* \"#utility.yul\":7746:7763   */\n      add\n        /* \"#utility.yul\":7739:7786   */\n      mstore\n        /* \"#utility.yul\":7803:7934   */\n      tag_246\n        /* \"#utility.yul\":7929:7933   */\n      dup2\n        /* \"#utility.yul\":7803:7934   */\n      tag_162\n      jump\t// in\n    tag_246:\n        /* \"#utility.yul\":7795:7934   */\n      swap1\n      pop\n        /* \"#utility.yul\":7522:7941   */\n      swap2\n      swap1\n      pop\n      jump\t// out\n        /* \"#utility.yul\":7947:8124   */\n    tag_163:\n        /* \"#utility.yul\":8087:8116   */\n      0x41756374696f6e20686173206265656e2063616e63656c6c65642e0000000000\n        /* \"#utility.yul\":8083:8084   */\n      0x00\n        /* \"#utility.yul\":8075:8081   */\n      dup3\n        /* \"#utility.yul\":8071:8085   */\n      add\n        /* \"#utility.yul\":8064:8117   */\n      mstore\n        /* \"#utility.yul\":7947:8124   */\n      pop\n      jump\t// out\n        /* \"#utility.yul\":8130:8496   */\n    tag_164:\n        /* \"#utility.yul\":8272:8275   */\n      0x00\n        /* \"#utility.yul\":8293:8360   */\n      tag_249\n        /* \"#utility.yul\":8357:8359   */\n      0x1b\n        /* \"#utility.yul\":8352:8355   */\n      dup4\n        /* \"#utility.yul\":8293:8360   */\n      tag_155\n      jump\t// in\n    tag_249:\n        /* \"#utility.yul\":8286:8360   */\n      swap2\n      pop\n        /* \"#utility.yul\":8369:8462   */\n      tag_250\n        /* \"#utility.yul\":8458:8461   */\n      dup3\n        /* \"#utility.yul\":8369:8462   */\n      tag_163\n      jump\t// in\n    tag_250:\n        /* \"#utility.yul\":8487:8489   */\n      0x20\n        /* \"#utility.yul\":8482:8485   */\n      dup3\n        /* \"#utility.yul\":8478:8490   */\n      add\n        /* \"#utility.yul\":8471:8490   */\n      swap1\n      pop\n        /* \"#utility.yul\":8130:8496   */\n      swap2\n      swap1\n      pop\n      jump\t// out\n        /* \"#utility.yul\":8502:8921   */\n    tag_75:\n        /* \"#utility.yul\":8668:8672   */\n      0x00\n        /* \"#utility.yul\":8706:8708   */\n      0x20\n        /* \"#utility.yul\":8695:8704   */\n      dup3\n        /* \"#utility.yul\":8691:8709   */\n      add\n        /* \"#utility.yul\":8683:8709   */\n      swap1\n      pop\n        /* \"#utility.yul\":8755:8764   */\n      dup2\n        /* \"#utility.yul\":8749:8753   */\n      dup2\n        /* \"#utility.yul\":8745:8765   */\n      sub\n        /* \"#utility.yul\":8741:8742   */\n      0x00\n        /* \"#utility.yul\":8730:8739   */\n      dup4\n        /* \"#utility.yul\":8726:8743   */\n      add\n        /* \"#utility.yul\":8719:8766   */\n      mstore\n        /* \"#utility.yul\":8783:8914   */\n      tag_252\n        /* \"#utility.yul\":8909:8913   */\n      dup2\n        /* \"#utility.yul\":8783:8914   */\n      tag_164\n      jump\t// in\n    tag_252:\n        /* \"#utility.yul\":8775:8914   */\n      swap1\n      pop\n        /* \"#utility.yul\":8502:8921   */\n      swap2\n      swap1\n      pop\n      jump\t// out\n        /* \"#utility.yul\":8927:9149   */\n    tag_81:\n        /* \"#utility.yul\":9020:9024   */\n      0x00\n        /* \"#utility.yul\":9058:9060   */\n      0x20\n        /* \"#utility.yul\":9047:9056   */\n      dup3\n        /* \"#utility.yul\":9043:9061   */\n      add\n        /* \"#utility.yul\":9035:9061   */\n      swap1\n      pop\n        /* \"#utility.yul\":9071:9142   */\n      tag_254\n        /* \"#utility.yul\":9139:9140   */\n      0x00\n        /* \"#utility.yul\":9128:9137   */\n      dup4\n        /* \"#utility.yul\":9124:9141   */\n      add\n        /* \"#utility.yul\":9115:9121   */\n      dup5\n        /* \"#utility.yul\":9071:9142   */\n      tag_152\n      jump\t// in\n    tag_254:\n        /* \"#utility.yul\":8927:9149   */\n      swap3\n      swap2\n      pop\n      pop\n      jump\t// out\n        /* \"#utility.yul\":9155:9397   */\n    tag_165:\n        /* \"#utility.yul\":9295:9329   */\n      0x42696420616d6f756e74206d75737420626520686967686572207468616e2074\n        /* \"#utility.yul\":9291:9292   */\n      0x00\n        /* \"#utility.yul\":9283:9289   */\n      dup3\n        /* \"#utility.yul\":9279:9293   */\n      add\n        /* \"#utility.yul\":9272:9330   */\n      mstore\n        /* \"#utility.yul\":9364:9389   */\n      0x68652063757272656e742068696768657374206269642e000000000000000000\n        /* \"#utility.yul\":9359:9361   */\n      0x20\n        /* \"#utility.yul\":9351:9357   */\n      dup3\n        /* \"#utility.yul\":9347:9362   */\n      add\n        /* \"#utility.yul\":9340:9390   */\n      mstore\n        /* \"#utility.yul\":9155:9397   */\n      pop\n      jump\t// out\n        /* \"#utility.yul\":9403:9769   */\n    tag_166:\n        /* \"#utility.yul\":9545:9548   */\n      0x00\n        /* \"#utility.yul\":9566:9633   */\n      tag_257\n        /* \"#utility.yul\":9630:9632   */\n      0x37\n        /* \"#utility.yul\":9625:9628   */\n      dup4\n        /* \"#utility.yul\":9566:9633   */\n      tag_155\n      jump\t// in\n    tag_257:\n        /* \"#utility.yul\":9559:9633   */\n      swap2\n      pop\n        /* \"#utility.yul\":9642:9735   */\n      tag_258\n        /* \"#utility.yul\":9731:9734   */\n      dup3\n        /* \"#utility.yul\":9642:9735   */\n      tag_165\n      jump\t// in\n    tag_258:\n        /* \"#utility.yul\":9760:9762   */\n      0x40\n        /* \"#utility.yul\":9755:9758   */\n      dup3\n        /* \"#utility.yul\":9751:9763   */\n      add\n        /* \"#utility.yul\":9744:9763   */\n      swap1\n      pop\n        /* \"#utility.yul\":9403:9769   */\n      swap2\n      swap1\n      pop\n      jump\t// out\n        /* \"#utility.yul\":9775:10194   */\n    tag_100:\n        /* \"#utility.yul\":9941:9945   */\n      0x00\n        /* \"#utility.yul\":9979:9981   */\n      0x20\n        /* \"#utility.yul\":9968:9977   */\n      dup3\n        /* \"#utility.yul\":9964:9982   */\n      add\n        /* \"#utility.yul\":9956:9982   */\n      swap1\n      pop\n        /* \"#utility.yul\":10028:10037   */\n      dup2\n        /* \"#utility.yul\":10022:10026   */\n      dup2\n        /* \"#utility.yul\":10018:10038   */\n      sub\n        /* \"#utility.yul\":10014:10015   */\n      0x00\n        /* \"#utility.yul\":10003:10012   */\n      dup4\n        /* \"#utility.yul\":9999:10016   */\n      add\n        /* \"#utility.yul\":9992:10039   */\n      mstore\n        /* \"#utility.yul\":10056:10187   */\n      tag_260\n        /* \"#utility.yul\":10182:10186   */\n      dup2\n        /* \"#utility.yul\":10056:10187   */\n      tag_166\n      jump\t// in\n    tag_260:\n        /* \"#utility.yul\":10048:10187   */\n      swap1\n      pop\n        /* \"#utility.yul\":9775:10194   */\n      swap2\n      swap1\n      pop\n      jump\t// out\n        /* \"#utility.yul\":10200:10436   */\n    tag_167:\n        /* \"#utility.yul\":10340:10374   */\n      0x42696420616d6f756e74206d757374206d656574206f72206578636565642074\n        /* \"#utility.yul\":10336:10337   */\n      0x00\n        /* \"#utility.yul\":10328:10334   */\n      dup3\n        /* \"#utility.yul\":10324:10338   */\n      add\n        /* \"#utility.yul\":10317:10375   */\n      mstore\n        /* \"#utility.yul\":10409:10428   */\n      0x686520726573657276652070726963652e000000000000000000000000000000\n        /* \"#utility.yul\":10404:10406   */\n      0x20\n        /* \"#utility.yul\":10396:10402   */\n      dup3\n        /* \"#utility.yul\":10392:10407   */\n      add\n        /* \"#utility.yul\":10385:10429   */\n      mstore\n        /* \"#utility.yul\":10200:10436   */\n      pop\n      jump\t// out\n        /* \"#utility.yul\":10442:10808   */\n    tag_168:\n        /* \"#utility.yul\":10584:10587   */\n      0x00\n        /* \"#utility.yul\":10605:10672   */\n      tag_263\n        /* \"#utility.yul\":10669:10671   */\n      0x31\n        /* \"#utility.yul\":10664:10667   */\n      dup4\n        /* \"#utility.yul\":10605:10672   */\n      tag_155\n      jump\t// in\n    tag_263:\n        /* \"#utility.yul\":10598:10672   */\n      swap2\n      pop\n        /* \"#utility.yul\":10681:10774   */\n      tag_264\n        /* \"#utility.yul\":10770:10773   */\n      dup3\n        /* \"#utility.yul\":10681:10774   */\n      tag_167\n      jump\t// in\n    tag_264:\n        /* \"#utility.yul\":10799:10801   */\n      0x40\n        /* \"#utility.yul\":10794:10797   */\n      dup3\n        /* \"#utility.yul\":10790:10802   */\n      add\n        /* \"#utility.yul\":10783:10802   */\n      swap1\n      pop\n        /* \"#utility.yul\":10442:10808   */\n      swap2\n      swap1\n      pop\n      jump\t// out\n        /* \"#utility.yul\":10814:11233   */\n    tag_103:\n        /* \"#utility.yul\":10980:10984   */\n      0x00\n        /* \"#utility.yul\":11018:11020   */\n      0x20\n        /* \"#utility.yul\":11007:11016   */\n      dup3\n        /* \"#utility.yul\":11003:11021   */\n      add\n        /* \"#utility.yul\":10995:11021   */\n      swap1\n      pop\n        /* \"#utility.yul\":11067:11076   */\n      dup2\n        /* \"#utility.yul\":11061:11065   */\n      dup2\n        /* \"#utility.yul\":11057:11077   */\n      sub\n        /* \"#utility.yul\":11053:11054   */\n      0x00\n        /* \"#utility.yul\":11042:11051   */\n      dup4\n        /* \"#utility.yul\":11038:11055   */\n      add\n        /* \"#utility.yul\":11031:11078   */\n      mstore\n        /* \"#utility.yul\":11095:11226   */\n      tag_266\n        /* \"#utility.yul\":11221:11225   */\n      dup2\n        /* \"#utility.yul\":11095:11226   */\n      tag_168\n      jump\t// in\n    tag_266:\n        /* \"#utility.yul\":11087:11226   */\n      swap1\n      pop\n        /* \"#utility.yul\":10814:11233   */\n      swap2\n      swap1\n      pop\n      jump\t// out\n        /* \"#utility.yul\":11239:11681   */\n    tag_108:\n        /* \"#utility.yul\":11388:11392   */\n      0x00\n        /* \"#utility.yul\":11426:11428   */\n      0x60\n        /* \"#utility.yul\":11415:11424   */\n      dup3\n        /* \"#utility.yul\":11411:11429   */\n      add\n        /* \"#utility.yul\":11403:11429   */\n      swap1\n      pop\n        /* \"#utility.yul\":11439:11510   */\n      tag_268\n        /* \"#utility.yul\":11507:11508   */\n      0x00\n        /* \"#utility.yul\":11496:11505   */\n      dup4\n        /* \"#utility.yul\":11492:11509   */\n      add\n        /* \"#utility.yul\":11483:11489   */\n      dup7\n        /* \"#utility.yul\":11439:11510   */\n      tag_152\n      jump\t// in\n    tag_268:\n        /* \"#utility.yul\":11520:11592   */\n      tag_269\n        /* \"#utility.yul\":11588:11590   */\n      0x20\n        /* \"#utility.yul\":11577:11586   */\n      dup4\n        /* \"#utility.yul\":11573:11591   */\n      add\n        /* \"#utility.yul\":11564:11570   */\n      dup6\n        /* \"#utility.yul\":11520:11592   */\n      tag_151\n      jump\t// in\n    tag_269:\n        /* \"#utility.yul\":11602:11674   */\n      tag_270\n        /* \"#utility.yul\":11670:11672   */\n      0x40\n        /* \"#utility.yul\":11659:11668   */\n      dup4\n        /* \"#utility.yul\":11655:11673   */\n      add\n        /* \"#utility.yul\":11646:11652   */\n      dup5\n        /* \"#utility.yul\":11602:11674   */\n      tag_152\n      jump\t// in\n    tag_270:\n        /* \"#utility.yul\":11239:11681   */\n      swap5\n      swap4\n      pop\n      pop\n      pop\n      pop\n      jump\t// out\n        /* \"#utility.yul\":11687:11911   */\n    tag_169:\n        /* \"#utility.yul\":11827:11861   */\n      0x41756374696f6e2063616e6e6f7420626520656e6465642077697468206e6f20\n        /* \"#utility.yul\":11823:11824   */\n      0x00\n        /* \"#utility.yul\":11815:11821   */\n      dup3\n        /* \"#utility.yul\":11811:11825   */\n      add\n        /* \"#utility.yul\":11804:11862   */\n      mstore\n        /* \"#utility.yul\":11896:11903   */\n      0x626964732e000000000000000000000000000000000000000000000000000000\n        /* \"#utility.yul\":11891:11893   */\n      0x20\n        /* \"#utility.yul\":11883:11889   */\n      dup3\n        /* \"#utility.yul\":11879:11894   */\n      add\n        /* \"#utility.yul\":11872:11904   */\n      mstore\n        /* \"#utility.yul\":11687:11911   */\n      pop\n      jump\t// out\n        /* \"#utility.yul\":11917:12283   */\n    tag_170:\n        /* \"#utility.yul\":12059:12062   */\n      0x00\n        /* \"#utility.yul\":12080:12147   */\n      tag_273\n        /* \"#utility.yul\":12144:12146   */\n      0x25\n        /* \"#utility.yul\":12139:12142   */\n      dup4\n        /* \"#utility.yul\":12080:12147   */\n      tag_155\n      jump\t// in\n    tag_273:\n        /* \"#utility.yul\":12073:12147   */\n      swap2\n      pop\n        /* \"#utility.yul\":12156:12249   */\n      tag_274\n        /* \"#utility.yul\":12245:12248   */\n      dup3\n        /* \"#utility.yul\":12156:12249   */\n      tag_169\n      jump\t// in\n    tag_274:\n        /* \"#utility.yul\":12274:12276   */\n      0x40\n        /* \"#utility.yul\":12269:12272   */\n      dup3\n        /* \"#utility.yul\":12265:12277   */\n      add\n        /* \"#utility.yul\":12258:12277   */\n      swap1\n      pop\n        /* \"#utility.yul\":11917:12283   */\n      swap2\n      swap1\n      pop\n      jump\t// out\n        /* \"#utility.yul\":12289:12708   */\n    tag_133:\n        /* \"#utility.yul\":12455:12459   */\n      0x00\n        /* \"#utility.yul\":12493:12495   */\n      0x20\n        /* \"#utility.yul\":12482:12491   */\n      dup3\n        /* \"#utility.yul\":12478:12496   */\n      add\n        /* \"#utility.yul\":12470:12496   */\n      swap1\n      pop\n        /* \"#utility.yul\":12542:12551   */\n      dup2\n        /* \"#utility.yul\":12536:12540   */\n      dup2\n        /* \"#utility.yul\":12532:12552   */\n      sub\n        /* \"#utility.yul\":12528:12529   */\n      0x00\n        /* \"#utility.yul\":12517:12526   */\n      dup4\n        /* \"#utility.yul\":12513:12530   */\n      add\n        /* \"#utility.yul\":12506:12553   */\n      mstore\n        /* \"#utility.yul\":12570:12701   */\n      tag_276\n        /* \"#utility.yul\":12696:12700   */\n      dup2\n        /* \"#utility.yul\":12570:12701   */\n      tag_170\n      jump\t// in\n    tag_276:\n        /* \"#utility.yul\":12562:12701   */\n      swap1\n      pop\n        /* \"#utility.yul\":12289:12708   */\n      swap2\n      swap1\n      pop\n      jump\t// out\n\n    auxdata: 0xa2646970667358221220cc54686189cf0729e2224c223f104b200005b2b51be26ebcac1b518680300e0064736f6c63430008120033\n}\n",
				"bytecode": {
					"linkReferences": {},
					"object": "60806040523480156200001157600080fd5b50620000256000806200002b60201b60201c565b6200031f565b6000821162000071576040517f08c379a0000000000000000000000000000000000000000000000000000000008152600401620000689062000289565b60405180910390fd5b60016040518060e001604052803373ffffffffffffffffffffffffffffffffffffffff1681526020018442620000a89190620002e4565b815260200183815260200160008152602001600073ffffffffffffffffffffffffffffffffffffffff16815260200160001515815260200160001515815250908060018154018082558091505060019003906000526020600020906005020160009091909190915060008201518160000160006101000a81548173ffffffffffffffffffffffffffffffffffffffff021916908373ffffffffffffffffffffffffffffffffffffffff16021790555060208201518160010155604082015181600201556060820151816003015560808201518160040160006101000a81548173ffffffffffffffffffffffffffffffffffffffff021916908373ffffffffffffffffffffffffffffffffffffffff16021790555060a08201518160040160146101000a81548160ff02191690831515021790555060c08201518160040160156101000a81548160ff02191690831515021790555050505050565b600082825260208201905092915050565b7f41756374696f6e206475726174696f6e206d757374206265206772656174657260008201527f207468616e207a65726f2e000000000000000000000000000000000000000000602082015250565b600062000271602b8362000202565b91506200027e8262000213565b604082019050919050565b60006020820190508181036000830152620002a48162000262565b9050919050565b6000819050919050565b7f4e487b7100000000000000000000000000000000000000000000000000000000600052601160045260246000fd5b6000620002f182620002ab565b9150620002fe83620002ab565b9250828201905080821115620003195762000318620002b5565b5b92915050565b611580806200032f6000396000f3fe6080604052600436106100705760003560e01c806396b5a7551161004e57806396b5a7551461011f5780639979ef4514610148578063b9a2de3a14610164578063f20e5e351461018d57610070565b80630121683f146100755780633f1ffcec1461009e578063571a26a0146100dc575b600080fd5b34801561008157600080fd5b5061009c60048036038101906100979190610ec7565b6101d0565b005b3480156100aa57600080fd5b506100c560048036038101906100c09190610f65565b6103a2565b6040516100d3929190610fc3565b60405180910390f35b3480156100e857600080fd5b5061010360048036038101906100fe9190610fec565b6103f3565b6040516101169796959493929190611034565b60405180910390f35b34801561012b57600080fd5b5061014660048036038101906101419190610fec565b61049f565b005b610162600480360381019061015d9190610fec565b6106bc565b005b34801561017057600080fd5b5061018b60048036038101906101869190610fec565b610a7a565b005b34801561019957600080fd5b506101b460048036038101906101af9190610fec565b610dc5565b6040516101c79796959493929190611034565b60405180910390f35b60008211610213576040517f08c379a000000000000000000000000000000000000000000000000000000000815260040161020a90611126565b60405180910390fd5b60016040518060e001604052803373ffffffffffffffffffffffffffffffffffffffff16815260200184426102489190611175565b815260200183815260200160008152602001600073ffffffffffffffffffffffffffffffffffffffff16815260200160001515815260200160001515815250908060018154018082558091505060019003906000526020600020906005020160009091909190915060008201518160000160006101000a81548173ffffffffffffffffffffffffffffffffffffffff021916908373ffffffffffffffffffffffffffffffffffffffff16021790555060208201518160010155604082015181600201556060820151816003015560808201518160040160006101000a81548173ffffffffffffffffffffffffffffffffffffffff021916908373ffffffffffffffffffffffffffffffffffffffff16021790555060a08201518160040160146101000a81548160ff02191690831515021790555060c08201518160040160156101000a81548160ff02191690831515021790555050505050565b6000602052816000526040600020602052806000526040600020600091509150508060000160009054906101000a900473ffffffffffffffffffffffffffffffffffffffff16908060010154905082565b6001818154811061040357600080fd5b90600052602060002090600502016000915090508060000160009054906101000a900473ffffffffffffffffffffffffffffffffffffffff16908060010154908060020154908060030154908060040160009054906101000a900473ffffffffffffffffffffffffffffffffffffffff16908060040160149054906101000a900460ff16908060040160159054906101000a900460ff16905087565b80600181815481106104b4576104b36111a9565b5b906000526020600020906005020160000160009054906101000a900473ffffffffffffffffffffffffffffffffffffffff1673ffffffffffffffffffffffffffffffffffffffff163373ffffffffffffffffffffffffffffffffffffffff1614610553576040517f08c379a000000000000000000000000000000000000000000000000000000000815260040161054a9061124a565b60405180910390fd5b8160018181548110610568576105676111a9565b5b906000526020600020906005020160040160149054906101000a900460ff16156105c7576040517f08c379a00000000000000000000000000000000000000000000000000000000081526004016105be906112b6565b60405180910390fd5b82600181815481106105dc576105db6111a9565b5b906000526020600020906005020160040160159054906101000a900460ff161561063b576040517f08c379a000000000000000000000000000000000000000000000000000000000815260040161063290611322565b60405180910390fd5b600060018581548110610651576106506111a9565b5b9060005260206000209060050201905060018160040160156101000a81548160ff0219169083151502179055507f2809c7e17bf978fbc7194c0a694b638c4215e9140cacc6c38ca36010b45697df856040516106ad9190611342565b60405180910390a15050505050565b80600181815481106106d1576106d06111a9565b5b906000526020600020906005020160040160149054906101000a900460ff1615610730576040517f08c379a0000000000000000000000000000000000000000000000000000000008152600401610727906112b6565b60405180910390fd5b8160018181548110610745576107446111a9565b5b906000526020600020906005020160040160159054906101000a900460ff16156107a4576040517f08c379a000000000000000000000000000000000000000000000000000000000815260040161079b90611322565b60405180910390fd5b6000600184815481106107ba576107b96111a9565b5b9060005260206000209060050201905080600301543411610810576040517f08c379a0000000000000000000000000000000000000000000000000000000008152600401610807906113cf565b60405180910390fd5b8060020154341015610857576040517f08c379a000000000000000000000000000000000000000000000000000000000815260040161084e90611461565b60405180910390fd5b600073ffffffffffffffffffffffffffffffffffffffff168160040160009054906101000a900473ffffffffffffffffffffffffffffffffffffffff1673ffffffffffffffffffffffffffffffffffffffff161461091f578060040160009054906101000a900473ffffffffffffffffffffffffffffffffffffffff1673ffffffffffffffffffffffffffffffffffffffff166108fc82600301549081150290604051600060405180830381858888f1935050505015801561091d573d6000803e3d6000fd5b505b348160030181905550338160040160006101000a81548173ffffffffffffffffffffffffffffffffffffffff021916908373ffffffffffffffffffffffffffffffffffffffff16021790555060405180604001604052803373ffffffffffffffffffffffffffffffffffffffff1681526020013481525060008086815260200190815260200160002060003373ffffffffffffffffffffffffffffffffffffffff1673ffffffffffffffffffffffffffffffffffffffff16815260200190815260200160002060008201518160000160006101000a81548173ffffffffffffffffffffffffffffffffffffffff021916908373ffffffffffffffffffffffffffffffffffffffff160217905550602082015181600101559050507f0e54eff26401bf69b81b26f60bd85ef47f5d85275c1d268d84f68d6897431c47843334604051610a6c93929190611481565b60405180910390a150505050565b8060018181548110610a8f57610a8e6111a9565b5b906000526020600020906005020160000160009054906101000a900473ffffffffffffffffffffffffffffffffffffffff1673ffffffffffffffffffffffffffffffffffffffff163373ffffffffffffffffffffffffffffffffffffffff1614610b2e576040517f08c379a0000000000000000000000000000000000000000000000000000000008152600401610b259061124a565b60405180910390fd5b8160018181548110610b4357610b426111a9565b5b906000526020600020906005020160040160149054906101000a900460ff1615610ba2576040517f08c379a0000000000000000000000000000000000000000000000000000000008152600401610b99906112b6565b60405180910390fd5b8260018181548110610bb757610bb66111a9565b5b906000526020600020906005020160040160159054906101000a900460ff1615610c16576040517f08c379a0000000000000000000000000000000000000000000000000000000008152600401610c0d90611322565b60405180910390fd5b600060018581548110610c2c57610c2b6111a9565b5b90600052602060002090600502019050600073ffffffffffffffffffffffffffffffffffffffff168160040160009054906101000a900473ffffffffffffffffffffffffffffffffffffffff1673ffffffffffffffffffffffffffffffffffffffff1603610ccf576040517f08c379a0000000000000000000000000000000000000000000000000000000008152600401610cc69061152a565b60405180910390fd5b8060000160009054906101000a900473ffffffffffffffffffffffffffffffffffffffff1673ffffffffffffffffffffffffffffffffffffffff166108fc82600301549081150290604051600060405180830381858888f19350505050158015610d3d573d6000803e3d6000fd5b5060018160040160146101000a81548160ff0219169083151502179055507fd2aa34a4fdbbc6dff6a3e56f46e0f3ae2a31d7785ff3487aa5c95c642acea501858260040160009054906101000a900473ffffffffffffffffffffffffffffffffffffffff168360030154604051610db693929190611481565b60405180910390a15050505050565b60008060008060008060008060018981548110610de557610de46111a9565b5b906000526020600020906005020190508060000160009054906101000a900473ffffffffffffffffffffffffffffffffffffffff168160010154826002015483600301548460040160009054906101000a900473ffffffffffffffffffffffffffffffffffffffff168560040160149054906101000a900460ff168660040160159054906101000a900460ff16975097509750975097509750975050919395979092949650565b600080fd5b6000819050919050565b610ea481610e91565b8114610eaf57600080fd5b50565b600081359050610ec181610e9b565b92915050565b60008060408385031215610ede57610edd610e8c565b5b6000610eec85828601610eb2565b9250506020610efd85828601610eb2565b9150509250929050565b600073ffffffffffffffffffffffffffffffffffffffff82169050919050565b6000610f3282610f07565b9050919050565b610f4281610f27565b8114610f4d57600080fd5b50565b600081359050610f5f81610f39565b92915050565b60008060408385031215610f7c57610f7b610e8c565b5b6000610f8a85828601610eb2565b9250506020610f9b85828601610f50565b9150509250929050565b610fae81610f27565b82525050565b610fbd81610e91565b82525050565b6000604082019050610fd86000830185610fa5565b610fe56020830184610fb4565b9392505050565b60006020828403121561100257611001610e8c565b5b600061101084828501610eb2565b91505092915050565b60008115159050919050565b61102e81611019565b82525050565b600060e082019050611049600083018a610fa5565b6110566020830189610fb4565b6110636040830188610fb4565b6110706060830187610fb4565b61107d6080830186610fa5565b61108a60a0830185611025565b61109760c0830184611025565b98975050505050505050565b600082825260208201905092915050565b7f41756374696f6e206475726174696f6e206d757374206265206772656174657260008201527f207468616e207a65726f2e000000000000000000000000000000000000000000602082015250565b6000611110602b836110a3565b915061111b826110b4565b604082019050919050565b6000602082019050818103600083015261113f81611103565b9050919050565b7f4e487b7100000000000000000000000000000000000000000000000000000000600052601160045260246000fd5b600061118082610e91565b915061118b83610e91565b92508282019050808211156111a3576111a2611146565b5b92915050565b7f4e487b7100000000000000000000000000000000000000000000000000000000600052603260045260246000fd5b7f4f6e6c79207468652061756374696f6e6565722063616e20706572666f726d2060008201527f7468697320616374696f6e2e0000000000000000000000000000000000000000602082015250565b6000611234602c836110a3565b915061123f826111d8565b604082019050919050565b6000602082019050818103600083015261126381611227565b9050919050565b7f41756374696f6e2068617320616c726561647920656e6465642e000000000000600082015250565b60006112a0601a836110a3565b91506112ab8261126a565b602082019050919050565b600060208201905081810360008301526112cf81611293565b9050919050565b7f41756374696f6e20686173206265656e2063616e63656c6c65642e0000000000600082015250565b600061130c601b836110a3565b9150611317826112d6565b602082019050919050565b6000602082019050818103600083015261133b816112ff565b9050919050565b60006020820190506113576000830184610fb4565b92915050565b7f42696420616d6f756e74206d75737420626520686967686572207468616e207460008201527f68652063757272656e742068696768657374206269642e000000000000000000602082015250565b60006113b96037836110a3565b91506113c48261135d565b604082019050919050565b600060208201905081810360008301526113e8816113ac565b9050919050565b7f42696420616d6f756e74206d757374206d656574206f7220657863656564207460008201527f686520726573657276652070726963652e000000000000000000000000000000602082015250565b600061144b6031836110a3565b9150611456826113ef565b604082019050919050565b6000602082019050818103600083015261147a8161143e565b9050919050565b60006060820190506114966000830186610fb4565b6114a36020830185610fa5565b6114b06040830184610fb4565b949350505050565b7f41756374696f6e2063616e6e6f7420626520656e6465642077697468206e6f2060008201527f626964732e000000000000000000000000000000000000000000000000000000602082015250565b60006115146025836110a3565b915061151f826114b8565b604082019050919050565b6000602082019050818103600083015261154381611507565b905091905056fea2646970667358221220cc54686189cf0729e2224c223f104b200005b2b51be26ebcac1b518680300e0064736f6c63430008120033",
					"opcodes": "PUSH1 0x80 PUSH1 0x40 MSTORE CALLVALUE DUP1 ISZERO PUSH3 0x11 JUMPI PUSH1 0x0 DUP1 REVERT JUMPDEST POP PUSH3 0x25 PUSH1 0x0 DUP1 PUSH3 0x2B PUSH1 0x20 SHL PUSH1 0x20 SHR JUMP JUMPDEST PUSH3 0x31F JUMP JUMPDEST PUSH1 0x0 DUP3 GT PUSH3 0x71 JUMPI PUSH1 0x40 MLOAD PUSH32 0x8C379A000000000000000000000000000000000000000000000000000000000 DUP2 MSTORE PUSH1 0x4 ADD PUSH3 0x68 SWAP1 PUSH3 0x289 JUMP JUMPDEST PUSH1 0x40 MLOAD DUP1 SWAP2 SUB SWAP1 REVERT JUMPDEST PUSH1 0x1 PUSH1 0x40 MLOAD DUP1 PUSH1 0xE0 ADD PUSH1 0x40 MSTORE DUP1 CALLER PUSH20 0xFFFFFFFFFFFFFFFFFFFFFFFFFFFFFFFFFFFFFFFF AND DUP2 MSTORE PUSH1 0x20 ADD DUP5 TIMESTAMP PUSH3 0xA8 SWAP2 SWAP1 PUSH3 0x2E4 JUMP JUMPDEST DUP2 MSTORE PUSH1 0x20 ADD DUP4 DUP2 MSTORE PUSH1 0x20 ADD PUSH1 0x0 DUP2 MSTORE PUSH1 0x20 ADD PUSH1 0x0 PUSH20 0xFFFFFFFFFFFFFFFFFFFFFFFFFFFFFFFFFFFFFFFF AND DUP2 MSTORE PUSH1 0x20 ADD PUSH1 0x0 ISZERO ISZERO DUP2 MSTORE PUSH1 0x20 ADD PUSH1 0x0 ISZERO ISZERO DUP2 MSTORE POP SWAP1 DUP1 PUSH1 0x1 DUP2 SLOAD ADD DUP1 DUP3 SSTORE DUP1 SWAP2 POP POP PUSH1 0x1 SWAP1 SUB SWAP1 PUSH1 0x0 MSTORE PUSH1 0x20 PUSH1 0x0 KECCAK256 SWAP1 PUSH1 0x5 MUL ADD PUSH1 0x0 SWAP1 SWAP2 SWAP1 SWAP2 SWAP1 SWAP2 POP PUSH1 0x0 DUP3 ADD MLOAD DUP2 PUSH1 0x0 ADD PUSH1 0x0 PUSH2 0x100 EXP DUP2 SLOAD DUP2 PUSH20 0xFFFFFFFFFFFFFFFFFFFFFFFFFFFFFFFFFFFFFFFF MUL NOT AND SWAP1 DUP4 PUSH20 0xFFFFFFFFFFFFFFFFFFFFFFFFFFFFFFFFFFFFFFFF AND MUL OR SWAP1 SSTORE POP PUSH1 0x20 DUP3 ADD MLOAD DUP2 PUSH1 0x1 ADD SSTORE PUSH1 0x40 DUP3 ADD MLOAD DUP2 PUSH1 0x2 ADD SSTORE PUSH1 0x60 DUP3 ADD MLOAD DUP2 PUSH1 0x3 ADD SSTORE PUSH1 0x80 DUP3 ADD MLOAD DUP2 PUSH1 0x4 ADD PUSH1 0x0 PUSH2 0x100 EXP DUP2 SLOAD DUP2 PUSH20 0xFFFFFFFFFFFFFFFFFFFFFFFFFFFFFFFFFFFFFFFF MUL NOT AND SWAP1 DUP4 PUSH20 0xFFFFFFFFFFFFFFFFFFFFFFFFFFFFFFFFFFFFFFFF AND MUL OR SWAP1 SSTORE POP PUSH1 0xA0 DUP3 ADD MLOAD DUP2 PUSH1 0x4 ADD PUSH1 0x14 PUSH2 0x100 EXP DUP2 SLOAD DUP2 PUSH1 0xFF MUL NOT AND SWAP1 DUP4 ISZERO ISZERO MUL OR SWAP1 SSTORE POP PUSH1 0xC0 DUP3 ADD MLOAD DUP2 PUSH1 0x4 ADD PUSH1 0x15 PUSH2 0x100 EXP DUP2 SLOAD DUP2 PUSH1 0xFF MUL NOT AND SWAP1 DUP4 ISZERO ISZERO MUL OR SWAP1 SSTORE POP POP POP POP POP JUMP JUMPDEST PUSH1 0x0 DUP3 DUP3 MSTORE PUSH1 0x20 DUP3 ADD SWAP1 POP SWAP3 SWAP2 POP POP JUMP JUMPDEST PUSH32 0x41756374696F6E206475726174696F6E206D7573742062652067726561746572 PUSH1 0x0 DUP3 ADD MSTORE PUSH32 0x207468616E207A65726F2E000000000000000000000000000000000000000000 PUSH1 0x20 DUP3 ADD MSTORE POP JUMP JUMPDEST PUSH1 0x0 PUSH3 0x271 PUSH1 0x2B DUP4 PUSH3 0x202 JUMP JUMPDEST SWAP2 POP PUSH3 0x27E DUP3 PUSH3 0x213 JUMP JUMPDEST PUSH1 0x40 DUP3 ADD SWAP1 POP SWAP2 SWAP1 POP JUMP JUMPDEST PUSH1 0x0 PUSH1 0x20 DUP3 ADD SWAP1 POP DUP2 DUP2 SUB PUSH1 0x0 DUP4 ADD MSTORE PUSH3 0x2A4 DUP2 PUSH3 0x262 JUMP JUMPDEST SWAP1 POP SWAP2 SWAP1 POP JUMP JUMPDEST PUSH1 0x0 DUP2 SWAP1 POP SWAP2 SWAP1 POP JUMP JUMPDEST PUSH32 0x4E487B7100000000000000000000000000000000000000000000000000000000 PUSH1 0x0 MSTORE PUSH1 0x11 PUSH1 0x4 MSTORE PUSH1 0x24 PUSH1 0x0 REVERT JUMPDEST PUSH1 0x0 PUSH3 0x2F1 DUP3 PUSH3 0x2AB JUMP JUMPDEST SWAP2 POP PUSH3 0x2FE DUP4 PUSH3 0x2AB JUMP JUMPDEST SWAP3 POP DUP3 DUP3 ADD SWAP1 POP DUP1 DUP3 GT ISZERO PUSH3 0x319 JUMPI PUSH3 0x318 PUSH3 0x2B5 JUMP JUMPDEST JUMPDEST SWAP3 SWAP2 POP POP JUMP JUMPDEST PUSH2 0x1580 DUP1 PUSH3 0x32F PUSH1 0x0 CODECOPY PUSH1 0x0 RETURN INVALID PUSH1 0x80 PUSH1 0x40 MSTORE PUSH1 0x4 CALLDATASIZE LT PUSH2 0x70 JUMPI PUSH1 0x0 CALLDATALOAD PUSH1 0xE0 SHR DUP1 PUSH4 0x96B5A755 GT PUSH2 0x4E JUMPI DUP1 PUSH4 0x96B5A755 EQ PUSH2 0x11F JUMPI DUP1 PUSH4 0x9979EF45 EQ PUSH2 0x148 JUMPI DUP1 PUSH4 0xB9A2DE3A EQ PUSH2 0x164 JUMPI DUP1 PUSH4 0xF20E5E35 EQ PUSH2 0x18D JUMPI PUSH2 0x70 JUMP JUMPDEST DUP1 PUSH4 0x121683F EQ PUSH2 0x75 JUMPI DUP1 PUSH4 0x3F1FFCEC EQ PUSH2 0x9E JUMPI DUP1 PUSH4 0x571A26A0 EQ PUSH2 0xDC JUMPI JUMPDEST PUSH1 0x0 DUP1 REVERT JUMPDEST CALLVALUE DUP1 ISZERO PUSH2 0x81 JUMPI PUSH1 0x0 DUP1 REVERT JUMPDEST POP PUSH2 0x9C PUSH1 0x4 DUP1 CALLDATASIZE SUB DUP2 ADD SWAP1 PUSH2 0x97 SWAP2 SWAP1 PUSH2 0xEC7 JUMP JUMPDEST PUSH2 0x1D0 JUMP JUMPDEST STOP JUMPDEST CALLVALUE DUP1 ISZERO PUSH2 0xAA JUMPI PUSH1 0x0 DUP1 REVERT JUMPDEST POP PUSH2 0xC5 PUSH1 0x4 DUP1 CALLDATASIZE SUB DUP2 ADD SWAP1 PUSH2 0xC0 SWAP2 SWAP1 PUSH2 0xF65 JUMP JUMPDEST PUSH2 0x3A2 JUMP JUMPDEST PUSH1 0x40 MLOAD PUSH2 0xD3 SWAP3 SWAP2 SWAP1 PUSH2 0xFC3 JUMP JUMPDEST PUSH1 0x40 MLOAD DUP1 SWAP2 SUB SWAP1 RETURN JUMPDEST CALLVALUE DUP1 ISZERO PUSH2 0xE8 JUMPI PUSH1 0x0 DUP1 REVERT JUMPDEST POP PUSH2 0x103 PUSH1 0x4 DUP1 CALLDATASIZE SUB DUP2 ADD SWAP1 PUSH2 0xFE SWAP2 SWAP1 PUSH2 0xFEC JUMP JUMPDEST PUSH2 0x3F3 JUMP JUMPDEST PUSH1 0x40 MLOAD PUSH2 0x116 SWAP8 SWAP7 SWAP6 SWAP5 SWAP4 SWAP3 SWAP2 SWAP1 PUSH2 0x1034 JUMP JUMPDEST PUSH1 0x40 MLOAD DUP1 SWAP2 SUB SWAP1 RETURN JUMPDEST CALLVALUE DUP1 ISZERO PUSH2 0x12B JUMPI PUSH1 0x0 DUP1 REVERT JUMPDEST POP PUSH2 0x146 PUSH1 0x4 DUP1 CALLDATASIZE SUB DUP2 ADD SWAP1 PUSH2 0x141 SWAP2 SWAP1 PUSH2 0xFEC JUMP JUMPDEST PUSH2 0x49F JUMP JUMPDEST STOP JUMPDEST PUSH2 0x162 PUSH1 0x4 DUP1 CALLDATASIZE SUB DUP2 ADD SWAP1 PUSH2 0x15D SWAP2 SWAP1 PUSH2 0xFEC JUMP JUMPDEST PUSH2 0x6BC JUMP JUMPDEST STOP JUMPDEST CALLVALUE DUP1 ISZERO PUSH2 0x170 JUMPI PUSH1 0x0 DUP1 REVERT JUMPDEST POP PUSH2 0x18B PUSH1 0x4 DUP1 CALLDATASIZE SUB DUP2 ADD SWAP1 PUSH2 0x186 SWAP2 SWAP1 PUSH2 0xFEC JUMP JUMPDEST PUSH2 0xA7A JUMP JUMPDEST STOP JUMPDEST CALLVALUE DUP1 ISZERO PUSH2 0x199 JUMPI PUSH1 0x0 DUP1 REVERT JUMPDEST POP PUSH2 0x1B4 PUSH1 0x4 DUP1 CALLDATASIZE SUB DUP2 ADD SWAP1 PUSH2 0x1AF SWAP2 SWAP1 PUSH2 0xFEC JUMP JUMPDEST PUSH2 0xDC5 JUMP JUMPDEST PUSH1 0x40 MLOAD PUSH2 0x1C7 SWAP8 SWAP7 SWAP6 SWAP5 SWAP4 SWAP3 SWAP2 SWAP1 PUSH2 0x1034 JUMP JUMPDEST PUSH1 0x40 MLOAD DUP1 SWAP2 SUB SWAP1 RETURN JUMPDEST PUSH1 0x0 DUP3 GT PUSH2 0x213 JUMPI PUSH1 0x40 MLOAD PUSH32 0x8C379A000000000000000000000000000000000000000000000000000000000 DUP2 MSTORE PUSH1 0x4 ADD PUSH2 0x20A SWAP1 PUSH2 0x1126 JUMP JUMPDEST PUSH1 0x40 MLOAD DUP1 SWAP2 SUB SWAP1 REVERT JUMPDEST PUSH1 0x1 PUSH1 0x40 MLOAD DUP1 PUSH1 0xE0 ADD PUSH1 0x40 MSTORE DUP1 CALLER PUSH20 0xFFFFFFFFFFFFFFFFFFFFFFFFFFFFFFFFFFFFFFFF AND DUP2 MSTORE PUSH1 0x20 ADD DUP5 TIMESTAMP PUSH2 0x248 SWAP2 SWAP1 PUSH2 0x1175 JUMP JUMPDEST DUP2 MSTORE PUSH1 0x20 ADD DUP4 DUP2 MSTORE PUSH1 0x20 ADD PUSH1 0x0 DUP2 MSTORE PUSH1 0x20 ADD PUSH1 0x0 PUSH20 0xFFFFFFFFFFFFFFFFFFFFFFFFFFFFFFFFFFFFFFFF AND DUP2 MSTORE PUSH1 0x20 ADD PUSH1 0x0 ISZERO ISZERO DUP2 MSTORE PUSH1 0x20 ADD PUSH1 0x0 ISZERO ISZERO DUP2 MSTORE POP SWAP1 DUP1 PUSH1 0x1 DUP2 SLOAD ADD DUP1 DUP3 SSTORE DUP1 SWAP2 POP POP PUSH1 0x1 SWAP1 SUB SWAP1 PUSH1 0x0 MSTORE PUSH1 0x20 PUSH1 0x0 KECCAK256 SWAP1 PUSH1 0x5 MUL ADD PUSH1 0x0 SWAP1 SWAP2 SWAP1 SWAP2 SWAP1 SWAP2 POP PUSH1 0x0 DUP3 ADD MLOAD DUP2 PUSH1 0x0 ADD PUSH1 0x0 PUSH2 0x100 EXP DUP2 SLOAD DUP2 PUSH20 0xFFFFFFFFFFFFFFFFFFFFFFFFFFFFFFFFFFFFFFFF MUL NOT AND SWAP1 DUP4 PUSH20 0xFFFFFFFFFFFFFFFFFFFFFFFFFFFFFFFFFFFFFFFF AND MUL OR SWAP1 SSTORE POP PUSH1 0x20 DUP3 ADD MLOAD DUP2 PUSH1 0x1 ADD SSTORE PUSH1 0x40 DUP3 ADD MLOAD DUP2 PUSH1 0x2 ADD SSTORE PUSH1 0x60 DUP3 ADD MLOAD DUP2 PUSH1 0x3 ADD SSTORE PUSH1 0x80 DUP3 ADD MLOAD DUP2 PUSH1 0x4 ADD PUSH1 0x0 PUSH2 0x100 EXP DUP2 SLOAD DUP2 PUSH20 0xFFFFFFFFFFFFFFFFFFFFFFFFFFFFFFFFFFFFFFFF MUL NOT AND SWAP1 DUP4 PUSH20 0xFFFFFFFFFFFFFFFFFFFFFFFFFFFFFFFFFFFFFFFF AND MUL OR SWAP1 SSTORE POP PUSH1 0xA0 DUP3 ADD MLOAD DUP2 PUSH1 0x4 ADD PUSH1 0x14 PUSH2 0x100 EXP DUP2 SLOAD DUP2 PUSH1 0xFF MUL NOT AND SWAP1 DUP4 ISZERO ISZERO MUL OR SWAP1 SSTORE POP PUSH1 0xC0 DUP3 ADD MLOAD DUP2 PUSH1 0x4 ADD PUSH1 0x15 PUSH2 0x100 EXP DUP2 SLOAD DUP2 PUSH1 0xFF MUL NOT AND SWAP1 DUP4 ISZERO ISZERO MUL OR SWAP1 SSTORE POP POP POP POP POP JUMP JUMPDEST PUSH1 0x0 PUSH1 0x20 MSTORE DUP2 PUSH1 0x0 MSTORE PUSH1 0x40 PUSH1 0x0 KECCAK256 PUSH1 0x20 MSTORE DUP1 PUSH1 0x0 MSTORE PUSH1 0x40 PUSH1 0x0 KECCAK256 PUSH1 0x0 SWAP2 POP SWAP2 POP POP DUP1 PUSH1 0x0 ADD PUSH1 0x0 SWAP1 SLOAD SWAP1 PUSH2 0x100 EXP SWAP1 DIV PUSH20 0xFFFFFFFFFFFFFFFFFFFFFFFFFFFFFFFFFFFFFFFF AND SWAP1 DUP1 PUSH1 0x1 ADD SLOAD SWAP1 POP DUP3 JUMP JUMPDEST PUSH1 0x1 DUP2 DUP2 SLOAD DUP2 LT PUSH2 0x403 JUMPI PUSH1 0x0 DUP1 REVERT JUMPDEST SWAP1 PUSH1 0x0 MSTORE PUSH1 0x20 PUSH1 0x0 KECCAK256 SWAP1 PUSH1 0x5 MUL ADD PUSH1 0x0 SWAP2 POP SWAP1 POP DUP1 PUSH1 0x0 ADD PUSH1 0x0 SWAP1 SLOAD SWAP1 PUSH2 0x100 EXP SWAP1 DIV PUSH20 0xFFFFFFFFFFFFFFFFFFFFFFFFFFFFFFFFFFFFFFFF AND SWAP1 DUP1 PUSH1 0x1 ADD SLOAD SWAP1 DUP1 PUSH1 0x2 ADD SLOAD SWAP1 DUP1 PUSH1 0x3 ADD SLOAD SWAP1 DUP1 PUSH1 0x4 ADD PUSH1 0x0 SWAP1 SLOAD SWAP1 PUSH2 0x100 EXP SWAP1 DIV PUSH20 0xFFFFFFFFFFFFFFFFFFFFFFFFFFFFFFFFFFFFFFFF AND SWAP1 DUP1 PUSH1 0x4 ADD PUSH1 0x14 SWAP1 SLOAD SWAP1 PUSH2 0x100 EXP SWAP1 DIV PUSH1 0xFF AND SWAP1 DUP1 PUSH1 0x4 ADD PUSH1 0x15 SWAP1 SLOAD SWAP1 PUSH2 0x100 EXP SWAP1 DIV PUSH1 0xFF AND SWAP1 POP DUP8 JUMP JUMPDEST DUP1 PUSH1 0x1 DUP2 DUP2 SLOAD DUP2 LT PUSH2 0x4B4 JUMPI PUSH2 0x4B3 PUSH2 0x11A9 JUMP JUMPDEST JUMPDEST SWAP1 PUSH1 0x0 MSTORE PUSH1 0x20 PUSH1 0x0 KECCAK256 SWAP1 PUSH1 0x5 MUL ADD PUSH1 0x0 ADD PUSH1 0x0 SWAP1 SLOAD SWAP1 PUSH2 0x100 EXP SWAP1 DIV PUSH20 0xFFFFFFFFFFFFFFFFFFFFFFFFFFFFFFFFFFFFFFFF AND PUSH20 0xFFFFFFFFFFFFFFFFFFFFFFFFFFFFFFFFFFFFFFFF AND CALLER PUSH20 0xFFFFFFFFFFFFFFFFFFFFFFFFFFFFFFFFFFFFFFFF AND EQ PUSH2 0x553 JUMPI PUSH1 0x40 MLOAD PUSH32 0x8C379A000000000000000000000000000000000000000000000000000000000 DUP2 MSTORE PUSH1 0x4 ADD PUSH2 0x54A SWAP1 PUSH2 0x124A JUMP JUMPDEST PUSH1 0x40 MLOAD DUP1 SWAP2 SUB SWAP1 REVERT JUMPDEST DUP2 PUSH1 0x1 DUP2 DUP2 SLOAD DUP2 LT PUSH2 0x568 JUMPI PUSH2 0x567 PUSH2 0x11A9 JUMP JUMPDEST JUMPDEST SWAP1 PUSH1 0x0 MSTORE PUSH1 0x20 PUSH1 0x0 KECCAK256 SWAP1 PUSH1 0x5 MUL ADD PUSH1 0x4 ADD PUSH1 0x14 SWAP1 SLOAD SWAP1 PUSH2 0x100 EXP SWAP1 DIV PUSH1 0xFF AND ISZERO PUSH2 0x5C7 JUMPI PUSH1 0x40 MLOAD PUSH32 0x8C379A000000000000000000000000000000000000000000000000000000000 DUP2 MSTORE PUSH1 0x4 ADD PUSH2 0x5BE SWAP1 PUSH2 0x12B6 JUMP JUMPDEST PUSH1 0x40 MLOAD DUP1 SWAP2 SUB SWAP1 REVERT JUMPDEST DUP3 PUSH1 0x1 DUP2 DUP2 SLOAD DUP2 LT PUSH2 0x5DC JUMPI PUSH2 0x5DB PUSH2 0x11A9 JUMP JUMPDEST JUMPDEST SWAP1 PUSH1 0x0 MSTORE PUSH1 0x20 PUSH1 0x0 KECCAK256 SWAP1 PUSH1 0x5 MUL ADD PUSH1 0x4 ADD PUSH1 0x15 SWAP1 SLOAD SWAP1 PUSH2 0x100 EXP SWAP1 DIV PUSH1 0xFF AND ISZERO PUSH2 0x63B JUMPI PUSH1 0x40 MLOAD PUSH32 0x8C379A000000000000000000000000000000000000000000000000000000000 DUP2 MSTORE PUSH1 0x4 ADD PUSH2 0x632 SWAP1 PUSH2 0x1322 JUMP JUMPDEST PUSH1 0x40 MLOAD DUP1 SWAP2 SUB SWAP1 REVERT JUMPDEST PUSH1 0x0 PUSH1 0x1 DUP6 DUP2 SLOAD DUP2 LT PUSH2 0x651 JUMPI PUSH2 0x650 PUSH2 0x11A9 JUMP JUMPDEST JUMPDEST SWAP1 PUSH1 0x0 MSTORE PUSH1 0x20 PUSH1 0x0 KECCAK256 SWAP1 PUSH1 0x5 MUL ADD SWAP1 POP PUSH1 0x1 DUP2 PUSH1 0x4 ADD PUSH1 0x15 PUSH2 0x100 EXP DUP2 SLOAD DUP2 PUSH1 0xFF MUL NOT AND SWAP1 DUP4 ISZERO ISZERO MUL OR SWAP1 SSTORE POP PUSH32 0x2809C7E17BF978FBC7194C0A694B638C4215E9140CACC6C38CA36010B45697DF DUP6 PUSH1 0x40 MLOAD PUSH2 0x6AD SWAP2 SWAP1 PUSH2 0x1342 JUMP JUMPDEST PUSH1 0x40 MLOAD DUP1 SWAP2 SUB SWAP1 LOG1 POP POP POP POP POP JUMP JUMPDEST DUP1 PUSH1 0x1 DUP2 DUP2 SLOAD DUP2 LT PUSH2 0x6D1 JUMPI PUSH2 0x6D0 PUSH2 0x11A9 JUMP JUMPDEST JUMPDEST SWAP1 PUSH1 0x0 MSTORE PUSH1 0x20 PUSH1 0x0 KECCAK256 SWAP1 PUSH1 0x5 MUL ADD PUSH1 0x4 ADD PUSH1 0x14 SWAP1 SLOAD SWAP1 PUSH2 0x100 EXP SWAP1 DIV PUSH1 0xFF AND ISZERO PUSH2 0x730 JUMPI PUSH1 0x40 MLOAD PUSH32 0x8C379A000000000000000000000000000000000000000000000000000000000 DUP2 MSTORE PUSH1 0x4 ADD PUSH2 0x727 SWAP1 PUSH2 0x12B6 JUMP JUMPDEST PUSH1 0x40 MLOAD DUP1 SWAP2 SUB SWAP1 REVERT JUMPDEST DUP2 PUSH1 0x1 DUP2 DUP2 SLOAD DUP2 LT PUSH2 0x745 JUMPI PUSH2 0x744 PUSH2 0x11A9 JUMP JUMPDEST JUMPDEST SWAP1 PUSH1 0x0 MSTORE PUSH1 0x20 PUSH1 0x0 KECCAK256 SWAP1 PUSH1 0x5 MUL ADD PUSH1 0x4 ADD PUSH1 0x15 SWAP1 SLOAD SWAP1 PUSH2 0x100 EXP SWAP1 DIV PUSH1 0xFF AND ISZERO PUSH2 0x7A4 JUMPI PUSH1 0x40 MLOAD PUSH32 0x8C379A000000000000000000000000000000000000000000000000000000000 DUP2 MSTORE PUSH1 0x4 ADD PUSH2 0x79B SWAP1 PUSH2 0x1322 JUMP JUMPDEST PUSH1 0x40 MLOAD DUP1 SWAP2 SUB SWAP1 REVERT JUMPDEST PUSH1 0x0 PUSH1 0x1 DUP5 DUP2 SLOAD DUP2 LT PUSH2 0x7BA JUMPI PUSH2 0x7B9 PUSH2 0x11A9 JUMP JUMPDEST JUMPDEST SWAP1 PUSH1 0x0 MSTORE PUSH1 0x20 PUSH1 0x0 KECCAK256 SWAP1 PUSH1 0x5 MUL ADD SWAP1 POP DUP1 PUSH1 0x3 ADD SLOAD CALLVALUE GT PUSH2 0x810 JUMPI PUSH1 0x40 MLOAD PUSH32 0x8C379A000000000000000000000000000000000000000000000000000000000 DUP2 MSTORE PUSH1 0x4 ADD PUSH2 0x807 SWAP1 PUSH2 0x13CF JUMP JUMPDEST PUSH1 0x40 MLOAD DUP1 SWAP2 SUB SWAP1 REVERT JUMPDEST DUP1 PUSH1 0x2 ADD SLOAD CALLVALUE LT ISZERO PUSH2 0x857 JUMPI PUSH1 0x40 MLOAD PUSH32 0x8C379A000000000000000000000000000000000000000000000000000000000 DUP2 MSTORE PUSH1 0x4 ADD PUSH2 0x84E SWAP1 PUSH2 0x1461 JUMP JUMPDEST PUSH1 0x40 MLOAD DUP1 SWAP2 SUB SWAP1 REVERT JUMPDEST PUSH1 0x0 PUSH20 0xFFFFFFFFFFFFFFFFFFFFFFFFFFFFFFFFFFFFFFFF AND DUP2 PUSH1 0x4 ADD PUSH1 0x0 SWAP1 SLOAD SWAP1 PUSH2 0x100 EXP SWAP1 DIV PUSH20 0xFFFFFFFFFFFFFFFFFFFFFFFFFFFFFFFFFFFFFFFF AND PUSH20 0xFFFFFFFFFFFFFFFFFFFFFFFFFFFFFFFFFFFFFFFF AND EQ PUSH2 0x91F JUMPI DUP1 PUSH1 0x4 ADD PUSH1 0x0 SWAP1 SLOAD SWAP1 PUSH2 0x100 EXP SWAP1 DIV PUSH20 0xFFFFFFFFFFFFFFFFFFFFFFFFFFFFFFFFFFFFFFFF AND PUSH20 0xFFFFFFFFFFFFFFFFFFFFFFFFFFFFFFFFFFFFFFFF AND PUSH2 0x8FC DUP3 PUSH1 0x3 ADD SLOAD SWAP1 DUP2 ISZERO MUL SWAP1 PUSH1 0x40 MLOAD PUSH1 0x0 PUSH1 0x40 MLOAD DUP1 DUP4 SUB DUP2 DUP6 DUP9 DUP9 CALL SWAP4 POP POP POP POP ISZERO DUP1 ISZERO PUSH2 0x91D JUMPI RETURNDATASIZE PUSH1 0x0 DUP1 RETURNDATACOPY RETURNDATASIZE PUSH1 0x0 REVERT JUMPDEST POP JUMPDEST CALLVALUE DUP2 PUSH1 0x3 ADD DUP2 SWAP1 SSTORE POP CALLER DUP2 PUSH1 0x4 ADD PUSH1 0x0 PUSH2 0x100 EXP DUP2 SLOAD DUP2 PUSH20 0xFFFFFFFFFFFFFFFFFFFFFFFFFFFFFFFFFFFFFFFF MUL NOT AND SWAP1 DUP4 PUSH20 0xFFFFFFFFFFFFFFFFFFFFFFFFFFFFFFFFFFFFFFFF AND MUL OR SWAP1 SSTORE POP PUSH1 0x40 MLOAD DUP1 PUSH1 0x40 ADD PUSH1 0x40 MSTORE DUP1 CALLER PUSH20 0xFFFFFFFFFFFFFFFFFFFFFFFFFFFFFFFFFFFFFFFF AND DUP2 MSTORE PUSH1 0x20 ADD CALLVALUE DUP2 MSTORE POP PUSH1 0x0 DUP1 DUP7 DUP2 MSTORE PUSH1 0x20 ADD SWAP1 DUP2 MSTORE PUSH1 0x20 ADD PUSH1 0x0 KECCAK256 PUSH1 0x0 CALLER PUSH20 0xFFFFFFFFFFFFFFFFFFFFFFFFFFFFFFFFFFFFFFFF AND PUSH20 0xFFFFFFFFFFFFFFFFFFFFFFFFFFFFFFFFFFFFFFFF AND DUP2 MSTORE PUSH1 0x20 ADD SWAP1 DUP2 MSTORE PUSH1 0x20 ADD PUSH1 0x0 KECCAK256 PUSH1 0x0 DUP3 ADD MLOAD DUP2 PUSH1 0x0 ADD PUSH1 0x0 PUSH2 0x100 EXP DUP2 SLOAD DUP2 PUSH20 0xFFFFFFFFFFFFFFFFFFFFFFFFFFFFFFFFFFFFFFFF MUL NOT AND SWAP1 DUP4 PUSH20 0xFFFFFFFFFFFFFFFFFFFFFFFFFFFFFFFFFFFFFFFF AND MUL OR SWAP1 SSTORE POP PUSH1 0x20 DUP3 ADD MLOAD DUP2 PUSH1 0x1 ADD SSTORE SWAP1 POP POP PUSH32 0xE54EFF26401BF69B81B26F60BD85EF47F5D85275C1D268D84F68D6897431C47 DUP5 CALLER CALLVALUE PUSH1 0x40 MLOAD PUSH2 0xA6C SWAP4 SWAP3 SWAP2 SWAP1 PUSH2 0x1481 JUMP JUMPDEST PUSH1 0x40 MLOAD DUP1 SWAP2 SUB SWAP1 LOG1 POP POP POP POP JUMP JUMPDEST DUP1 PUSH1 0x1 DUP2 DUP2 SLOAD DUP2 LT PUSH2 0xA8F JUMPI PUSH2 0xA8E PUSH2 0x11A9 JUMP JUMPDEST JUMPDEST SWAP1 PUSH1 0x0 MSTORE PUSH1 0x20 PUSH1 0x0 KECCAK256 SWAP1 PUSH1 0x5 MUL ADD PUSH1 0x0 ADD PUSH1 0x0 SWAP1 SLOAD SWAP1 PUSH2 0x100 EXP SWAP1 DIV PUSH20 0xFFFFFFFFFFFFFFFFFFFFFFFFFFFFFFFFFFFFFFFF AND PUSH20 0xFFFFFFFFFFFFFFFFFFFFFFFFFFFFFFFFFFFFFFFF AND CALLER PUSH20 0xFFFFFFFFFFFFFFFFFFFFFFFFFFFFFFFFFFFFFFFF AND EQ PUSH2 0xB2E JUMPI PUSH1 0x40 MLOAD PUSH32 0x8C379A000000000000000000000000000000000000000000000000000000000 DUP2 MSTORE PUSH1 0x4 ADD PUSH2 0xB25 SWAP1 PUSH2 0x124A JUMP JUMPDEST PUSH1 0x40 MLOAD DUP1 SWAP2 SUB SWAP1 REVERT JUMPDEST DUP2 PUSH1 0x1 DUP2 DUP2 SLOAD DUP2 LT PUSH2 0xB43 JUMPI PUSH2 0xB42 PUSH2 0x11A9 JUMP JUMPDEST JUMPDEST SWAP1 PUSH1 0x0 MSTORE PUSH1 0x20 PUSH1 0x0 KECCAK256 SWAP1 PUSH1 0x5 MUL ADD PUSH1 0x4 ADD PUSH1 0x14 SWAP1 SLOAD SWAP1 PUSH2 0x100 EXP SWAP1 DIV PUSH1 0xFF AND ISZERO PUSH2 0xBA2 JUMPI PUSH1 0x40 MLOAD PUSH32 0x8C379A000000000000000000000000000000000000000000000000000000000 DUP2 MSTORE PUSH1 0x4 ADD PUSH2 0xB99 SWAP1 PUSH2 0x12B6 JUMP JUMPDEST PUSH1 0x40 MLOAD DUP1 SWAP2 SUB SWAP1 REVERT JUMPDEST DUP3 PUSH1 0x1 DUP2 DUP2 SLOAD DUP2 LT PUSH2 0xBB7 JUMPI PUSH2 0xBB6 PUSH2 0x11A9 JUMP JUMPDEST JUMPDEST SWAP1 PUSH1 0x0 MSTORE PUSH1 0x20 PUSH1 0x0 KECCAK256 SWAP1 PUSH1 0x5 MUL ADD PUSH1 0x4 ADD PUSH1 0x15 SWAP1 SLOAD SWAP1 PUSH2 0x100 EXP SWAP1 DIV PUSH1 0xFF AND ISZERO PUSH2 0xC16 JUMPI PUSH1 0x40 MLOAD PUSH32 0x8C379A000000000000000000000000000000000000000000000000000000000 DUP2 MSTORE PUSH1 0x4 ADD PUSH2 0xC0D SWAP1 PUSH2 0x1322 JUMP JUMPDEST PUSH1 0x40 MLOAD DUP1 SWAP2 SUB SWAP1 REVERT JUMPDEST PUSH1 0x0 PUSH1 0x1 DUP6 DUP2 SLOAD DUP2 LT PUSH2 0xC2C JUMPI PUSH2 0xC2B PUSH2 0x11A9 JUMP JUMPDEST JUMPDEST SWAP1 PUSH1 0x0 MSTORE PUSH1 0x20 PUSH1 0x0 KECCAK256 SWAP1 PUSH1 0x5 MUL ADD SWAP1 POP PUSH1 0x0 PUSH20 0xFFFFFFFFFFFFFFFFFFFFFFFFFFFFFFFFFFFFFFFF AND DUP2 PUSH1 0x4 ADD PUSH1 0x0 SWAP1 SLOAD SWAP1 PUSH2 0x100 EXP SWAP1 DIV PUSH20 0xFFFFFFFFFFFFFFFFFFFFFFFFFFFFFFFFFFFFFFFF AND PUSH20 0xFFFFFFFFFFFFFFFFFFFFFFFFFFFFFFFFFFFFFFFF AND SUB PUSH2 0xCCF JUMPI PUSH1 0x40 MLOAD PUSH32 0x8C379A000000000000000000000000000000000000000000000000000000000 DUP2 MSTORE PUSH1 0x4 ADD PUSH2 0xCC6 SWAP1 PUSH2 0x152A JUMP JUMPDEST PUSH1 0x40 MLOAD DUP1 SWAP2 SUB SWAP1 REVERT JUMPDEST DUP1 PUSH1 0x0 ADD PUSH1 0x0 SWAP1 SLOAD SWAP1 PUSH2 0x100 EXP SWAP1 DIV PUSH20 0xFFFFFFFFFFFFFFFFFFFFFFFFFFFFFFFFFFFFFFFF AND PUSH20 0xFFFFFFFFFFFFFFFFFFFFFFFFFFFFFFFFFFFFFFFF AND PUSH2 0x8FC DUP3 PUSH1 0x3 ADD SLOAD SWAP1 DUP2 ISZERO MUL SWAP1 PUSH1 0x40 MLOAD PUSH1 0x0 PUSH1 0x40 MLOAD DUP1 DUP4 SUB DUP2 DUP6 DUP9 DUP9 CALL SWAP4 POP POP POP POP ISZERO DUP1 ISZERO PUSH2 0xD3D JUMPI RETURNDATASIZE PUSH1 0x0 DUP1 RETURNDATACOPY RETURNDATASIZE PUSH1 0x0 REVERT JUMPDEST POP PUSH1 0x1 DUP2 PUSH1 0x4 ADD PUSH1 0x14 PUSH2 0x100 EXP DUP2 SLOAD DUP2 PUSH1 0xFF MUL NOT AND SWAP1 DUP4 ISZERO ISZERO MUL OR SWAP1 SSTORE POP PUSH32 0xD2AA34A4FDBBC6DFF6A3E56F46E0F3AE2A31D7785FF3487AA5C95C642ACEA501 DUP6 DUP3 PUSH1 0x4 ADD PUSH1 0x0 SWAP1 SLOAD SWAP1 PUSH2 0x100 EXP SWAP1 DIV PUSH20 0xFFFFFFFFFFFFFFFFFFFFFFFFFFFFFFFFFFFFFFFF AND DUP4 PUSH1 0x3 ADD SLOAD PUSH1 0x40 MLOAD PUSH2 0xDB6 SWAP4 SWAP3 SWAP2 SWAP1 PUSH2 0x1481 JUMP JUMPDEST PUSH1 0x40 MLOAD DUP1 SWAP2 SUB SWAP1 LOG1 POP POP POP POP POP JUMP JUMPDEST PUSH1 0x0 DUP1 PUSH1 0x0 DUP1 PUSH1 0x0 DUP1 PUSH1 0x0 DUP1 PUSH1 0x1 DUP10 DUP2 SLOAD DUP2 LT PUSH2 0xDE5 JUMPI PUSH2 0xDE4 PUSH2 0x11A9 JUMP JUMPDEST JUMPDEST SWAP1 PUSH1 0x0 MSTORE PUSH1 0x20 PUSH1 0x0 KECCAK256 SWAP1 PUSH1 0x5 MUL ADD SWAP1 POP DUP1 PUSH1 0x0 ADD PUSH1 0x0 SWAP1 SLOAD SWAP1 PUSH2 0x100 EXP SWAP1 DIV PUSH20 0xFFFFFFFFFFFFFFFFFFFFFFFFFFFFFFFFFFFFFFFF AND DUP2 PUSH1 0x1 ADD SLOAD DUP3 PUSH1 0x2 ADD SLOAD DUP4 PUSH1 0x3 ADD SLOAD DUP5 PUSH1 0x4 ADD PUSH1 0x0 SWAP1 SLOAD SWAP1 PUSH2 0x100 EXP SWAP1 DIV PUSH20 0xFFFFFFFFFFFFFFFFFFFFFFFFFFFFFFFFFFFFFFFF AND DUP6 PUSH1 0x4 ADD PUSH1 0x14 SWAP1 SLOAD SWAP1 PUSH2 0x100 EXP SWAP1 DIV PUSH1 0xFF AND DUP7 PUSH1 0x4 ADD PUSH1 0x15 SWAP1 SLOAD SWAP1 PUSH2 0x100 EXP SWAP1 DIV PUSH1 0xFF AND SWAP8 POP SWAP8 POP SWAP8 POP SWAP8 POP SWAP8 POP SWAP8 POP SWAP8 POP POP SWAP2 SWAP4 SWAP6 SWAP8 SWAP1 SWAP3 SWAP5 SWAP7 POP JUMP JUMPDEST PUSH1 0x0 DUP1 REVERT JUMPDEST PUSH1 0x0 DUP2 SWAP1 POP SWAP2 SWAP1 POP JUMP JUMPDEST PUSH2 0xEA4 DUP2 PUSH2 0xE91 JUMP JUMPDEST DUP2 EQ PUSH2 0xEAF JUMPI PUSH1 0x0 DUP1 REVERT JUMPDEST POP JUMP JUMPDEST PUSH1 0x0 DUP2 CALLDATALOAD SWAP1 POP PUSH2 0xEC1 DUP2 PUSH2 0xE9B JUMP JUMPDEST SWAP3 SWAP2 POP POP JUMP JUMPDEST PUSH1 0x0 DUP1 PUSH1 0x40 DUP4 DUP6 SUB SLT ISZERO PUSH2 0xEDE JUMPI PUSH2 0xEDD PUSH2 0xE8C JUMP JUMPDEST JUMPDEST PUSH1 0x0 PUSH2 0xEEC DUP6 DUP3 DUP7 ADD PUSH2 0xEB2 JUMP JUMPDEST SWAP3 POP POP PUSH1 0x20 PUSH2 0xEFD DUP6 DUP3 DUP7 ADD PUSH2 0xEB2 JUMP JUMPDEST SWAP2 POP POP SWAP3 POP SWAP3 SWAP1 POP JUMP JUMPDEST PUSH1 0x0 PUSH20 0xFFFFFFFFFFFFFFFFFFFFFFFFFFFFFFFFFFFFFFFF DUP3 AND SWAP1 POP SWAP2 SWAP1 POP JUMP JUMPDEST PUSH1 0x0 PUSH2 0xF32 DUP3 PUSH2 0xF07 JUMP JUMPDEST SWAP1 POP SWAP2 SWAP1 POP JUMP JUMPDEST PUSH2 0xF42 DUP2 PUSH2 0xF27 JUMP JUMPDEST DUP2 EQ PUSH2 0xF4D JUMPI PUSH1 0x0 DUP1 REVERT JUMPDEST POP JUMP JUMPDEST PUSH1 0x0 DUP2 CALLDATALOAD SWAP1 POP PUSH2 0xF5F DUP2 PUSH2 0xF39 JUMP JUMPDEST SWAP3 SWAP2 POP POP JUMP JUMPDEST PUSH1 0x0 DUP1 PUSH1 0x40 DUP4 DUP6 SUB SLT ISZERO PUSH2 0xF7C JUMPI PUSH2 0xF7B PUSH2 0xE8C JUMP JUMPDEST JUMPDEST PUSH1 0x0 PUSH2 0xF8A DUP6 DUP3 DUP7 ADD PUSH2 0xEB2 JUMP JUMPDEST SWAP3 POP POP PUSH1 0x20 PUSH2 0xF9B DUP6 DUP3 DUP7 ADD PUSH2 0xF50 JUMP JUMPDEST SWAP2 POP POP SWAP3 POP SWAP3 SWAP1 POP JUMP JUMPDEST PUSH2 0xFAE DUP2 PUSH2 0xF27 JUMP JUMPDEST DUP3 MSTORE POP POP JUMP JUMPDEST PUSH2 0xFBD DUP2 PUSH2 0xE91 JUMP JUMPDEST DUP3 MSTORE POP POP JUMP JUMPDEST PUSH1 0x0 PUSH1 0x40 DUP3 ADD SWAP1 POP PUSH2 0xFD8 PUSH1 0x0 DUP4 ADD DUP6 PUSH2 0xFA5 JUMP JUMPDEST PUSH2 0xFE5 PUSH1 0x20 DUP4 ADD DUP5 PUSH2 0xFB4 JUMP JUMPDEST SWAP4 SWAP3 POP POP POP JUMP JUMPDEST PUSH1 0x0 PUSH1 0x20 DUP3 DUP5 SUB SLT ISZERO PUSH2 0x1002 JUMPI PUSH2 0x1001 PUSH2 0xE8C JUMP JUMPDEST JUMPDEST PUSH1 0x0 PUSH2 0x1010 DUP5 DUP3 DUP6 ADD PUSH2 0xEB2 JUMP JUMPDEST SWAP2 POP POP SWAP3 SWAP2 POP POP JUMP JUMPDEST PUSH1 0x0 DUP2 ISZERO ISZERO SWAP1 POP SWAP2 SWAP1 POP JUMP JUMPDEST PUSH2 0x102E DUP2 PUSH2 0x1019 JUMP JUMPDEST DUP3 MSTORE POP POP JUMP JUMPDEST PUSH1 0x0 PUSH1 0xE0 DUP3 ADD SWAP1 POP PUSH2 0x1049 PUSH1 0x0 DUP4 ADD DUP11 PUSH2 0xFA5 JUMP JUMPDEST PUSH2 0x1056 PUSH1 0x20 DUP4 ADD DUP10 PUSH2 0xFB4 JUMP JUMPDEST PUSH2 0x1063 PUSH1 0x40 DUP4 ADD DUP9 PUSH2 0xFB4 JUMP JUMPDEST PUSH2 0x1070 PUSH1 0x60 DUP4 ADD DUP8 PUSH2 0xFB4 JUMP JUMPDEST PUSH2 0x107D PUSH1 0x80 DUP4 ADD DUP7 PUSH2 0xFA5 JUMP JUMPDEST PUSH2 0x108A PUSH1 0xA0 DUP4 ADD DUP6 PUSH2 0x1025 JUMP JUMPDEST PUSH2 0x1097 PUSH1 0xC0 DUP4 ADD DUP5 PUSH2 0x1025 JUMP JUMPDEST SWAP9 SWAP8 POP POP POP POP POP POP POP POP JUMP JUMPDEST PUSH1 0x0 DUP3 DUP3 MSTORE PUSH1 0x20 DUP3 ADD SWAP1 POP SWAP3 SWAP2 POP POP JUMP JUMPDEST PUSH32 0x41756374696F6E206475726174696F6E206D7573742062652067726561746572 PUSH1 0x0 DUP3 ADD MSTORE PUSH32 0x207468616E207A65726F2E000000000000000000000000000000000000000000 PUSH1 0x20 DUP3 ADD MSTORE POP JUMP JUMPDEST PUSH1 0x0 PUSH2 0x1110 PUSH1 0x2B DUP4 PUSH2 0x10A3 JUMP JUMPDEST SWAP2 POP PUSH2 0x111B DUP3 PUSH2 0x10B4 JUMP JUMPDEST PUSH1 0x40 DUP3 ADD SWAP1 POP SWAP2 SWAP1 POP JUMP JUMPDEST PUSH1 0x0 PUSH1 0x20 DUP3 ADD SWAP1 POP DUP2 DUP2 SUB PUSH1 0x0 DUP4 ADD MSTORE PUSH2 0x113F DUP2 PUSH2 0x1103 JUMP JUMPDEST SWAP1 POP SWAP2 SWAP1 POP JUMP JUMPDEST PUSH32 0x4E487B7100000000000000000000000000000000000000000000000000000000 PUSH1 0x0 MSTORE PUSH1 0x11 PUSH1 0x4 MSTORE PUSH1 0x24 PUSH1 0x0 REVERT JUMPDEST PUSH1 0x0 PUSH2 0x1180 DUP3 PUSH2 0xE91 JUMP JUMPDEST SWAP2 POP PUSH2 0x118B DUP4 PUSH2 0xE91 JUMP JUMPDEST SWAP3 POP DUP3 DUP3 ADD SWAP1 POP DUP1 DUP3 GT ISZERO PUSH2 0x11A3 JUMPI PUSH2 0x11A2 PUSH2 0x1146 JUMP JUMPDEST JUMPDEST SWAP3 SWAP2 POP POP JUMP JUMPDEST PUSH32 0x4E487B7100000000000000000000000000000000000000000000000000000000 PUSH1 0x0 MSTORE PUSH1 0x32 PUSH1 0x4 MSTORE PUSH1 0x24 PUSH1 0x0 REVERT JUMPDEST PUSH32 0x4F6E6C79207468652061756374696F6E6565722063616E20706572666F726D20 PUSH1 0x0 DUP3 ADD MSTORE PUSH32 0x7468697320616374696F6E2E0000000000000000000000000000000000000000 PUSH1 0x20 DUP3 ADD MSTORE POP JUMP JUMPDEST PUSH1 0x0 PUSH2 0x1234 PUSH1 0x2C DUP4 PUSH2 0x10A3 JUMP JUMPDEST SWAP2 POP PUSH2 0x123F DUP3 PUSH2 0x11D8 JUMP JUMPDEST PUSH1 0x40 DUP3 ADD SWAP1 POP SWAP2 SWAP1 POP JUMP JUMPDEST PUSH1 0x0 PUSH1 0x20 DUP3 ADD SWAP1 POP DUP2 DUP2 SUB PUSH1 0x0 DUP4 ADD MSTORE PUSH2 0x1263 DUP2 PUSH2 0x1227 JUMP JUMPDEST SWAP1 POP SWAP2 SWAP1 POP JUMP JUMPDEST PUSH32 0x41756374696F6E2068617320616C726561647920656E6465642E000000000000 PUSH1 0x0 DUP3 ADD MSTORE POP JUMP JUMPDEST PUSH1 0x0 PUSH2 0x12A0 PUSH1 0x1A DUP4 PUSH2 0x10A3 JUMP JUMPDEST SWAP2 POP PUSH2 0x12AB DUP3 PUSH2 0x126A JUMP JUMPDEST PUSH1 0x20 DUP3 ADD SWAP1 POP SWAP2 SWAP1 POP JUMP JUMPDEST PUSH1 0x0 PUSH1 0x20 DUP3 ADD SWAP1 POP DUP2 DUP2 SUB PUSH1 0x0 DUP4 ADD MSTORE PUSH2 0x12CF DUP2 PUSH2 0x1293 JUMP JUMPDEST SWAP1 POP SWAP2 SWAP1 POP JUMP JUMPDEST PUSH32 0x41756374696F6E20686173206265656E2063616E63656C6C65642E0000000000 PUSH1 0x0 DUP3 ADD MSTORE POP JUMP JUMPDEST PUSH1 0x0 PUSH2 0x130C PUSH1 0x1B DUP4 PUSH2 0x10A3 JUMP JUMPDEST SWAP2 POP PUSH2 0x1317 DUP3 PUSH2 0x12D6 JUMP JUMPDEST PUSH1 0x20 DUP3 ADD SWAP1 POP SWAP2 SWAP1 POP JUMP JUMPDEST PUSH1 0x0 PUSH1 0x20 DUP3 ADD SWAP1 POP DUP2 DUP2 SUB PUSH1 0x0 DUP4 ADD MSTORE PUSH2 0x133B DUP2 PUSH2 0x12FF JUMP JUMPDEST SWAP1 POP SWAP2 SWAP1 POP JUMP JUMPDEST PUSH1 0x0 PUSH1 0x20 DUP3 ADD SWAP1 POP PUSH2 0x1357 PUSH1 0x0 DUP4 ADD DUP5 PUSH2 0xFB4 JUMP JUMPDEST SWAP3 SWAP2 POP POP JUMP JUMPDEST PUSH32 0x42696420616D6F756E74206D75737420626520686967686572207468616E2074 PUSH1 0x0 DUP3 ADD MSTORE PUSH32 0x68652063757272656E742068696768657374206269642E000000000000000000 PUSH1 0x20 DUP3 ADD MSTORE POP JUMP JUMPDEST PUSH1 0x0 PUSH2 0x13B9 PUSH1 0x37 DUP4 PUSH2 0x10A3 JUMP JUMPDEST SWAP2 POP PUSH2 0x13C4 DUP3 PUSH2 0x135D JUMP JUMPDEST PUSH1 0x40 DUP3 ADD SWAP1 POP SWAP2 SWAP1 POP JUMP JUMPDEST PUSH1 0x0 PUSH1 0x20 DUP3 ADD SWAP1 POP DUP2 DUP2 SUB PUSH1 0x0 DUP4 ADD MSTORE PUSH2 0x13E8 DUP2 PUSH2 0x13AC JUMP JUMPDEST SWAP1 POP SWAP2 SWAP1 POP JUMP JUMPDEST PUSH32 0x42696420616D6F756E74206D757374206D656574206F72206578636565642074 PUSH1 0x0 DUP3 ADD MSTORE PUSH32 0x686520726573657276652070726963652E000000000000000000000000000000 PUSH1 0x20 DUP3 ADD MSTORE POP JUMP JUMPDEST PUSH1 0x0 PUSH2 0x144B PUSH1 0x31 DUP4 PUSH2 0x10A3 JUMP JUMPDEST SWAP2 POP PUSH2 0x1456 DUP3 PUSH2 0x13EF JUMP JUMPDEST PUSH1 0x40 DUP3 ADD SWAP1 POP SWAP2 SWAP1 POP JUMP JUMPDEST PUSH1 0x0 PUSH1 0x20 DUP3 ADD SWAP1 POP DUP2 DUP2 SUB PUSH1 0x0 DUP4 ADD MSTORE PUSH2 0x147A DUP2 PUSH2 0x143E JUMP JUMPDEST SWAP1 POP SWAP2 SWAP1 POP JUMP JUMPDEST PUSH1 0x0 PUSH1 0x60 DUP3 ADD SWAP1 POP PUSH2 0x1496 PUSH1 0x0 DUP4 ADD DUP7 PUSH2 0xFB4 JUMP JUMPDEST PUSH2 0x14A3 PUSH1 0x20 DUP4 ADD DUP6 PUSH2 0xFA5 JUMP JUMPDEST PUSH2 0x14B0 PUSH1 0x40 DUP4 ADD DUP5 PUSH2 0xFB4 JUMP JUMPDEST SWAP5 SWAP4 POP POP POP POP JUMP JUMPDEST PUSH32 0x41756374696F6E2063616E6E6F7420626520656E6465642077697468206E6F20 PUSH1 0x0 DUP3 ADD MSTORE PUSH32 0x626964732E000000000000000000000000000000000000000000000000000000 PUSH1 0x20 DUP3 ADD MSTORE POP JUMP JUMPDEST PUSH1 0x0 PUSH2 0x1514 PUSH1 0x25 DUP4 PUSH2 0x10A3 JUMP JUMPDEST SWAP2 POP PUSH2 0x151F DUP3 PUSH2 0x14B8 JUMP JUMPDEST PUSH1 0x40 DUP3 ADD SWAP1 POP SWAP2 SWAP1 POP JUMP JUMPDEST PUSH1 0x0 PUSH1 0x20 DUP3 ADD SWAP1 POP DUP2 DUP2 SUB PUSH1 0x0 DUP4 ADD MSTORE PUSH2 0x1543 DUP2 PUSH2 0x1507 JUMP JUMPDEST SWAP1 POP SWAP2 SWAP1 POP JUMP INVALID LOG2 PUSH5 0x6970667358 0x22 SLT KECCAK256 0xCC SLOAD PUSH9 0x6189CF0729E2224C22 EXTCODEHASH LT 0x4B KECCAK256 STOP SDIV 0xB2 0xB5 SHL 0xE2 PUSH15 0xBCAC1B518680300E0064736F6C6343 STOP ADDMOD SLT STOP CALLER "
				},
				"gasEstimates": {
					"creation": {
						"codeDepositCost": "1100800",
						"executionCost": "infinite",
						"totalCost": "infinite"
					},
					"external": {
						"auctions(uint256)": "infinite",
						"bids(uint256,address)": "infinite",
						"cancelAuction(uint256)": "infinite",
						"createAuction(uint256,uint256)": "infinite",
						"endAuction(uint256)": "infinite",
						"getAuctionDetails(uint256)": "infinite",
						"placeBid(uint256)": "infinite"
					}
				},
				"methodIdentifiers": {
					"auctions(uint256)": "571a26a0",
					"bids(uint256,address)": "3f1ffcec",
					"cancelAuction(uint256)": "96b5a755",
					"createAuction(uint256,uint256)": "0121683f",
					"endAuction(uint256)": "b9a2de3a",
					"getAuctionDetails(uint256)": "f20e5e35",
					"placeBid(uint256)": "9979ef45"
				}
			},
			"storageLayout": {
				"storage": [
					{
						"astId": 28,
						"contract": "contracts/Auction.sol:Auction",
						"label": "bids",
						"offset": 0,
						"slot": "0",
						"type": "t_mapping(t_uint256,t_mapping(t_address,t_struct(Bid)6_storage))"
					},
					{
						"astId": 32,
						"contract": "contracts/Auction.sol:Auction",
						"label": "auctions",
						"offset": 0,
						"slot": "1",
						"type": "t_array(t_struct(AuctionItem)21_storage)dyn_storage"
					}
				],
				"types": {
					"t_address": {
						"encoding": "inplace",
						"label": "address",
						"numberOfBytes": "20"
					},
					"t_array(t_struct(AuctionItem)21_storage)dyn_storage": {
						"base": "t_struct(AuctionItem)21_storage",
						"encoding": "dynamic_array",
						"label": "struct Auction.AuctionItem[]",
						"numberOfBytes": "32"
					},
					"t_bool": {
						"encoding": "inplace",
						"label": "bool",
						"numberOfBytes": "1"
					},
					"t_mapping(t_address,t_struct(Bid)6_storage)": {
						"encoding": "mapping",
						"key": "t_address",
						"label": "mapping(address => struct Auction.Bid)",
						"numberOfBytes": "32",
						"value": "t_struct(Bid)6_storage"
					},
					"t_mapping(t_uint256,t_mapping(t_address,t_struct(Bid)6_storage))": {
						"encoding": "mapping",
						"key": "t_uint256",
						"label": "mapping(uint256 => mapping(address => struct Auction.Bid))",
						"numberOfBytes": "32",
						"value": "t_mapping(t_address,t_struct(Bid)6_storage)"
					},
					"t_struct(AuctionItem)21_storage": {
						"encoding": "inplace",
						"label": "struct Auction.AuctionItem",
						"members": [
							{
								"astId": 8,
								"contract": "contracts/Auction.sol:Auction",
								"label": "auctioneer",
								"offset": 0,
								"slot": "0",
								"type": "t_address"
							},
							{
								"astId": 10,
								"contract": "contracts/Auction.sol:Auction",
								"label": "auctionEndTime",
								"offset": 0,
								"slot": "1",
								"type": "t_uint256"
							},
							{
								"astId": 12,
								"contract": "contracts/Auction.sol:Auction",
								"label": "reservePrice",
								"offset": 0,
								"slot": "2",
								"type": "t_uint256"
							},
							{
								"astId": 14,
								"contract": "contracts/Auction.sol:Auction",
								"label": "highestBid",
								"offset": 0,
								"slot": "3",
								"type": "t_uint256"
							},
							{
								"astId": 16,
								"contract": "contracts/Auction.sol:Auction",
								"label": "highestBidder",
								"offset": 0,
								"slot": "4",
								"type": "t_address"
							},
							{
								"astId": 18,
								"contract": "contracts/Auction.sol:Auction",
								"label": "ended",
								"offset": 20,
								"slot": "4",
								"type": "t_bool"
							},
							{
								"astId": 20,
								"contract": "contracts/Auction.sol:Auction",
								"label": "cancelled",
								"offset": 21,
								"slot": "4",
								"type": "t_bool"
							}
						],
						"numberOfBytes": "160"
					},
					"t_struct(Bid)6_storage": {
						"encoding": "inplace",
						"label": "struct Auction.Bid",
						"members": [
							{
								"astId": 3,
								"contract": "contracts/Auction.sol:Auction",
								"label": "bidder",
								"offset": 0,
								"slot": "0",
								"type": "t_address"
							},
							{
								"astId": 5,
								"contract": "contracts/Auction.sol:Auction",
								"label": "amount",
								"offset": 0,
								"slot": "1",
								"type": "t_uint256"
							}
						],
						"numberOfBytes": "64"
					},
					"t_uint256": {
						"encoding": "inplace",
						"label": "uint256",
						"numberOfBytes": "32"
					}
				}
			},
			"userdoc": {
				"kind": "user",
				"methods": {},
				"version": 1
			}
		}
	}
}